:100000000C942A000C9447000C9447000C94470071
:100010000C9447000C9447000C9447000C94470044
:100020000C9447000C9447000C9447000C94470034
:100030000C9447000C9447000C9447000C94470024
:100040000C9447000C9447000C9447000C94470014
:100050000C94470011241FBECFE5D8E0DEBFCDBF12
:1000600010E0A0E6B0E0EEE5F2E302C005900D92EC
:10007000A03DB107D9F710E0A0EDB0E001C01D929E
:10008000A13DB107E1F70E9440150C942D190C9485
:100090000000EF92FF920F931F937B018C0120E0F1
:1000A00030E040E05FE40E94490388238CF0C801FF
:1000B000B70120E030E040E05FE40E94C1010E940F
:1000C000A9039B01AC01205030404040504806C07D
:1000D000C801B7010E94A9039B01AC01B901CA0183
:1000E0001F910F91FF90EF900895A0E0B0E0EBE733
:1000F000F0E00C94F618DC012B01FA019C9192308F
:1001000008F439C1EB018881823008F433C194309E
:1001100069F4843009F02FC111969C91119789815F
:10012000981709F428C1A5EAB0E025C1843009F484
:1001300021C18230A9F4923009F01DC19A01AD01AC
:1001400088E0EA010990AE01E90109929E0181501F
:10015000C1F7E201898111969C918923818308C1AD
:10016000923009F407C112962D903C901397EB0141
:100170008A819B811496AD90BD90CD90DC901797AD
:10018000EC80FD800E811F819101281B390BB90184
:1001900037FF04C066277727621B730B6032710537
:1001A0000CF061C0121613066CF537014801062EDB
:1001B00004C096948794779467940A94D2F721E0C8
:1001C00030E040E050E004C0220F331F441F551FB1
:1001D0006A95D2F721503040404050402E213F21B7
:1001E00040235123211531054105510521F021E01E
:1001F00030E040E050E079018A01E628F72808293C
:1002000019293CC0232BD1F1260E371E350146019A
:10021000062E04C096948794779467940A94D2F734
:1002200021E030E040E050E004C0220F331F441FC3
:10023000551F6A95D2F721503040404050402A2146
:100240003B214C215D21211531054105510521F04E
:1002500021E030E040E050E059016A01A628B728CB
:10026000C828D9280BC0821593052CF01C01AA249C
:10027000BB24650103C0EE24FF24870111969C91E5
:10028000D20111968C91981709F445C0992339F041
:10029000A80197012A193B094C095D0906C0A6016E
:1002A00095012E193F09400B510B57FD08C01182D3
:1002B0003382228224833583468357831DC081E0A5
:1002C00081833382228288279927DC01821B930B4A
:1002D000A40BB50B84839583A683B7830DC0220F2F
:1002E000331F441F551F24833583468357838281E0
:1002F000938101979383828324813581468157813D
:10030000DA01C9010197A109B1098F5F9F4FAF4F72
:10031000BF4328F30BC0918333822282EA0CFB1C7B
:100320000C1D1D1DE482F5820683178383E0808304
:10033000248135814681578157FF1AC0C901AA27F8
:1003400097FDA095BA2F81709070A070B0705695EF
:10035000479537952795822B932BA42BB52B848318
:100360009583A683B7838281938101969383828349
:10037000DF0101C0D201CD01CDB7DEB7E2E10C94BF
:100380001219A0E2B0E0E7ECF1E00C9402196983E5
:100390007A838B839C832D833E834F835887E9E048
:1003A000EE2EF12CEC0EFD1ECE010196B7010E943F
:1003B000D2048E010F5E1F4FCE010596B8010E9438
:1003C000D2048A8991E089278A8BC701B801AE01DE
:1003D000475E5F4F0E9475000E94FD03A096E6E015
:1003E0000C941E19A0E2B0E0E8EFF1E00C940219C1
:1003F00069837A838B839C832D833E834F835887C5
:10040000F9E0EF2EF12CEC0EFD1ECE010196B701A6
:100410000E94D2048E010F5E1F4FCE010596B801D7
:100420000E94D204C701B801AE01475E5F4F0E942F
:1004300075000E94FD03A096E6E00C941E19A0E250
:10044000B0E0E5E2F2E00C94F61869837A838B83DE
:100450009C832D833E834F835887CE010196BE0136
:10046000675F7F4F0E94D204CE010596BE016F5E8A
:100470007F4F0E94D2049985923088F0898982301A
:10048000C8F0943019F4823051F404C0843029F457
:10049000923081F485EA90E0C6C0923049F420E0C1
:1004A0009A858A89981321E02A87CE010996BBC0D4
:1004B000823049F420E09A858A89981321E02A8BBA
:1004C000CE014196B0C02D843E844F8458886D88FB
:1004D0007E888F88988CEE24FF248701AA24BB2471
:1004E000650140E050E060E070E0E0E0F0E0C10174
:1004F00081709070892BE9F0E60CF71C081D191D1E
:100500009A01AB012A0D3B1D4C1D5D1D80E090E062
:10051000A0E0B0E0E614F7040805190520F481E036
:1005200090E0A0E0B0E0BA01A901480F591F6A1F8E
:100530007B1FAA0CBB1CCC1CDD1C97FE08C081E0F5
:1005400090E0A0E0B0E0A82AB92ACA2ADB2A3196B6
:10055000E032F10549F0660C771C881C991C569412
:10056000479437942794C3CFFA85EA892B893C892D
:100570008B859C85280F391F2E5F3F4F17C0CA01FE
:1005800081709070892B61F016950795F794E79428
:1005900080E090E0A0E0B0E8E82AF92A0A2B1B2BC3
:1005A00076956795579547952F5F3F4F77FDE7CF36
:1005B0000CC0440F551F661F771F17FD4160EE0CDE
:1005C000FF1C001F111F21503040403090E05907A0
:1005D00090E0690790E4790760F32B8F3C8FDB0193
:1005E000CA018F779070A070B07080349105A1051A
:1005F000B10561F447FD0AC0E114F10401051105DC
:1006000029F0405C5F4F6F4F7F4F40781A8EFE1786
:1006100011F081E08A8F4D8F5E8F6F8F78A383E01A
:10062000898FCE0149960E94FD03A096E2E10C94C9
:100630001219A8E1B0E0EFE1F3E00C94021969832C
:100640007A838B839C832D833E834F83588789E0F5
:10065000E82EF12CEC0EFD1ECE010196B7010E9492
:10066000D2048E010F5E1F4FCE010596B8010E9485
:10067000D2048985823040F08989823028F0C70110
:10068000B8010E944A0501C08FEF6896E6E00C941D
:100690001E19A8E1B0E0EFE4F3E00C9402196983BD
:1006A0007A838B839C832D833E834F83588789E095
:1006B000E82EF12CEC0EFD1ECE010196B7010E9432
:1006C000D2048E010F5E1F4FCE010596B8010E9425
:1006D000D2048985823040F08989823028F0C701B0
:1006E000B8010E944A0501C08FEF6896E6E00C94BD
:1006F0001E19A8E1B0E0EFE7F3E00C94021969835A
:100700007A838B839C832D833E834F83588789E034
:10071000E82EF12CEC0EFD1ECE010196B7010E94D1
:10072000D2048E010F5E1F4FCE010596B8010E94C4
:10073000D2048985823040F08989823028F0C7014F
:10074000B8010E944A0501C081E06896E6E00C9479
:100750001E19ACE0B0E0EFEAF3E00C9406196983EF
:100760007A838B839C83CE010196BE016B5F7F4FA2
:100770000E94D2048D81823061F1823050F1843048
:1007800021F48E81882351F12EC02F81388537FDC9
:1007900020C06E812F3131051CF06623F9F023C093
:1007A0008EE190E0821B930B29853A854B855C8511
:1007B00004C056954795379527958A95D2F76623B5
:1007C000B1F050954095309521953F4F4F4F5F4F79
:1007D0000EC020E030E040E050E009C02FEF3FEFD6
:1007E0004FEF5FE704C020E030E040E050E8B9019F
:1007F000CA012C96E2E00C942219DF92EF92FF924C
:100800000F931F93FC01E480F58006811781D1804E
:100810008081823048F480E090E0A0E1B0E0E82AF6
:10082000F92A0A2B1B2BA5C0843009F49FC0823003
:1008300021F4EE24FF24870105C0E114F104010531
:10084000110519F4E0E0F0E096C0628173819FEF3A
:10085000623879070CF05BC022E83FEF261B370BAC
:100860002A3131052CF020E030E040E050E02AC091
:10087000B801A701022E04C0769567955795479554
:100880000A94D2F781E090E0A0E0B0E004C0880FC5
:10089000991FAA1FBB1F2A95D2F70197A109B10979
:1008A0008E219F21A023B1230097A105B10521F03E
:1008B00081E090E0A0E0B0E09A01AB01282B392B59
:1008C0004A2B5B2BDA01C9018F779070A070B07052
:1008D00080349105A105B10539F427FF09C0205CDA
:1008E0003F4F4F4F5F4F04C0215C3F4F4F4F5F4F13
:1008F000E0E0F0E02030A0E03A07A0E04A07A0E402
:100900005A0710F0E1E0F0E079018A0127C0603871
:10091000710564F5FB01E158FF4FD801C7018F77DE
:100920009070A070B07080349105A105B10539F4C4
:10093000E7FE0DC080E490E0A0E0B0E004C08FE3EB
:1009400090E0A0E0B0E0E80EF91E0A1F1B1F17FFA1
:1009500005C016950795F794E794319687E01695AC
:100960000795F794E7948A95D1F705C0EE24FF2404
:100970008701EFEFF0E06E2F679566276795902F60
:100980009F77D794DD24D7948E2F8695492F462BB9
:10099000582F5D29B701CA011F910F91FF90EF9069
:1009A000DF900895FC01DB01408151812281622F9B
:1009B0006F7770E0221F2227221F9381892F880FD3
:1009C000822B282F30E0991F9927991F11969C930D
:1009D000119721153105A9F54115510561057105DD
:1009E00011F482E037C082E89FEF13969C938E93B8
:1009F00012979A01AB0167E0220F331F441F551F66
:100A00006A95D1F783E08C930DC0220F331F441FEA
:100A1000551F12968D919C911397019713969C9355
:100A20008E931297203080E0380780E0480780E4FA
:100A3000580758F314962D933D934D935C93179755
:100A400008952F3F310579F4411551056105710570
:100A500019F484E08C93089564FF03C081E08C93C3
:100A600012C01C9210C02F57304013963C932E9307
:100A7000129783E08C9387E0440F551F661F771F02
:100A80008A95D1F7706414964D935D936D937C9322
:100A9000179708951F93DC01FB019C91923008F495
:100AA00047C08081823008F443C0943051F41196DD
:100AB0001C91843099F58181682F70E0611B710968
:100AC0003FC0843021F0923031F48230B9F181811D
:100AD000882389F12DC011961C9111978230F1F075
:100AE00081811817D9F412962D913C911397828128
:100AF00093818217930794F028173907BCF0149656
:100B00008D919D910D90BC91A02D248135814681C0
:100B10005781281739074A075B0718F4112341F05A
:100B20000AC082179307A407B50740F4112319F0F0
:100B300061E070E005C06FEF7FEF02C060E070E041
:100B4000CB011F910895DF93CF93CDB7DEB7EAE3D2
:100B5000F0E08FEF8083E7E3F0E087E08083E4E379
:100B6000F0E01082E1E3F0E08FE08083EBE3F0E07F
:100B70001082E8E3F0E01082E2E3F0E08FEF8083A0
:100B8000E2E3F0E01082CF91DF910895DF93CF93FD
:100B9000CDB7DEB728970FB6F894DEBF0FBECDBF36
:100BA0008A836B834C8319828B81883008F0F4C070
:100BB0008C81882309F077C08A81282F30E038871C
:100BC0002F838F8198858130910559F12F81388548
:100BD000223031052CF48F819885009769F060C030
:100BE0002F8138852230310589F18F8198858330B6
:100BF000910509F440C054C0AAE3B0E0EAE3F0E094
:100C00008081482F8B81282F30E081E090E0022EF8
:100C100002C0880F991F0A94E2F7809584238C9371
:100C2000BDC0A7E3B0E0E7E3F0E08081482F8B810F
:100C3000282F30E081E090E0022E02C0880F991F3B
:100C40000A94E2F7809584238C93A8C0A4E3B0E0D3
:100C5000E4E3F0E08081482F8B81282F30E081E0B1
:100C600090E0022E02C0880F991F0A94E2F7809547
:100C700084238C9393C0A1E3B0E0E1E3F0E08081B2
:100C8000482F8B81282F30E081E090E0022E02C0B7
:100C9000880F991F0A94E2F7809584238C937EC075
:100CA00081E089837BC08C81813009F072C08A81A8
:100CB000282F30E03E832D838D819E8181309105E8
:100CC00049F12D813E81223031052CF48D819E81A8
:100CD000009761F05BC02D813E812230310571F1BA
:100CE0008D819E8183309105E9F150C0AAE3B0E087
:100CF000EAE3F0E08081482F8B81282F30E081E00B
:100D000090E0022E02C0880F991F0A94E2F7842B0C
:100D10008C9344C0A7E3B0E0E7E3F0E08081482F84
:100D20008B81282F30E081E090E0022E02C0880FF6
:100D3000991F0A94E2F7842B8C9330C0A4E3B0E0AF
:100D4000E4E3F0E08081482F8B81282F30E081E0C0
:100D500090E0022E02C0880F991F0A94E2F7842BBC
:100D60008C931CC0A1E3B0E0E1E3F0E08081482F68
:100D70008B81282F30E081E090E0022E02C0880FA6
:100D8000991F0A94E2F7842B8C9308C081E0898331
:100D900005C081E0898302C081E08983898128962A
:100DA0000FB6F894DEBF0FBECDBFCF91DF9108958F
:100DB000DF93CF9300D000D00F92CDB7DEB78A83F8
:100DC0006B8319828A81282F30E03D832C838C81AC
:100DD0009D8181309105D1F02C813D8122303105FA
:100DE0002CF48C819D81009761F01FC02C813D8186
:100DF0002230310581F08C819D818330910581F015
:100E000014C0EAE3F0E08B81808311C0E7E3F0E0F7
:100E10008B8180830CC0E4E3F0E08B81808307C08A
:100E2000E1E3F0E08B81808302C081E089838981E6
:100E30000F900F900F900F900F90CF91DF9108952A
:100E4000DF93CF93CDB7DEB728970FB6F894DEBF08
:100E50000FBECDBF8A836B834C8319828B81883010
:100E600008F0F4C08C81882309F077C08A81282F8C
:100E700030E038872F838F8198858130910559F133
:100E80002F813885223031052CF48F819885009789
:100E900069F060C02F8138852230310589F18F815A
:100EA00098858330910509F440C054C0ABE3B0E0AD
:100EB000EBE3F0E08081482F8B81282F30E081E048
:100EC00090E0022E02C0880F991F0A94E2F78095E5
:100ED00084238C93BDC0A8E3B0E0E8E3F0E0808118
:100EE000482F8B81282F30E081E090E0022E02C055
:100EF000880F991F0A94E2F7809584238C93A8C0E9
:100F0000A5E3B0E0E5E3F0E08081482F8B81282F56
:100F100030E081E090E0022E02C0880F991F0A9411
:100F2000E2F7809584238C9393C0A2E3B0E0E2E3E0
:100F3000F0E08081482F8B81282F30E081E090E025
:100F4000022E02C0880F991F0A94E2F7809584232D
:100F50008C937EC081E089837BC08C81813009F0D5
:100F600072C08A81282F30E03E832D838D819E813F
:100F70008130910549F12D813E81223031052CF4DB
:100F80008D819E81009761F05BC02D813E81223072
:100F9000310571F18D819E8183309105E9F150C059
:100FA000ABE3B0E0EBE3F0E08081482F8B81282FAA
:100FB00030E081E090E0022E02C0880F991F0A9471
:100FC000E2F7842B8C9344C0A8E3B0E0E8E3F0E0C0
:100FD0008081482F8B81282F30E081E090E0022E25
:100FE00002C0880F991F0A94E2F7842B8C9330C0BB
:100FF000A5E3B0E0E5E3F0E08081482F8B81282F66
:1010000030E081E090E0022E02C0880F991F0A9420
:10101000E2F7842B8C931CC0A2E3B0E0E2E3F0E0A3
:101020008081482F8B81282F30E081E090E0022ED4
:1010300002C0880F991F0A94E2F7842B8C9308C092
:1010400081E0898305C081E0898302C081E08983D2
:10105000898128960FB6F894DEBF0FBECDBFCF9121
:10106000DF910895DF93CF9300D000D00F92CDB7DA
:10107000DEB78A836B8319828A81282F30E03D8313
:101080002C838C819D8181309105D1F02C813D8113
:10109000223031052CF48C819D81009761F01FC0B6
:1010A0002C813D812230310581F08C819D818330FE
:1010B000910581F014C0EBE3F0E08B81808311C0D7
:1010C000E8E3F0E08B8180830CC0E5E3F0E08B8106
:1010D000808307C0E2E3F0E08B81808302C081E07F
:1010E000898389810F900F900F900F900F90CF916F
:1010F000DF910895DF93CF93CDB7DEB727970FB673
:10110000F894DEBF0FBECDBF8A836B835D834C83B3
:1011100019828C819D81009709F478C08B81883079
:1011200008F074C08A81282F30E03F832E834E81DF
:101130005F814130510559F18E819F818230910547
:1011400034F42E813F812115310569F05CC04E8158
:101150005F814230510579F18E819F818330910505
:1011600009F43DC050C0E9E3F0E08081282F30E071
:101170008B81882F90E0A90102C0559547958A95EB
:10118000E2F7CA018170EC81FD81808341C0E6E312
:10119000F0E08081282F30E08B81882F90E0A9013A
:1011A00002C0559547958A95E2F7CA018170EC8196
:1011B000FD8180832DC0E3E3F0E08081282F30E0C3
:1011C0008B81882F90E0A90102C0559547958A959B
:1011D000E2F7CA018170EC81FD81808319C0E0E3F0
:1011E000F0E08081282F30E08B81882F90E0A901EA
:1011F00002C0559547958A95E2F7CA018170EC8146
:10120000FD81808305C081E0898302C081E08983FC
:10121000898127960FB6F894DEBF0FBECDBFCF9160
:10122000DF910895DF93CF93CDB7DEB769970FB6FF
:10123000F894DEBF0FBECDBF9A8B898B7C8B6B8BF6
:101240001F868B899C89009709F403C189899A8933
:10125000009709F4FEC0E989FA898181883008F095
:10126000F8C0E989FA898081843008F0F2C0E98900
:10127000FA898381823008F0ECC0E989FA89828199
:10128000833008F0E6C0E989FA898381813009F06A
:101290008DC0E989FA898081E989FA8991819E0165
:1012A000205F3F4F692FA9010E947A0880E090E0FB
:1012B000AAEFB3E48B879C87AD87BE876B857C855F
:1012C0008D859E8520E030E04AEF54E40E941F02A5
:1012D000DC01CB018F839887A987BA876F817885D6
:1012E00089859A8520E030E040E85FE30E94790339
:1012F00088232CF481E090E09E838D833FC06F8132
:10130000788589859A8520E03FEF4FE757E40E9472
:10131000190318164CF56B857C858D859E8520E01C
:1013200030E040E251E40E941F02DC01CB01BC012D
:10133000CD010E944900DC01CB019E838D830FC04B
:1013400088EC90E09C838B838B819C810197F1F7E3
:101350009C838B838D819E8101979E838D838D815C
:101360009E81009769F714C06F81788589859A8579
:101370000E944900DC01CB019E838D838D819E817B
:101380009A83898389819A810197F1F79A83898366
:10139000E989FA898081E989FA8991819E01205F32
:1013A0003F4F692FA9010E947A0812C0E989FA8982
:1013B0008381882369F4E989FA898081E989FA8936
:1013C00091819E01205F3F4F692FA9010E947A08F9
:1013D000E989FA898281282F30E0388F2F8B8F8915
:1013E000988D81309105A1F02F89388D22303105FB
:1013F000D9F08F89988D009771F588891E8A882386
:1014000011F491E09E8BEB89FC892E89208323C007
:101410008889898F398D332311F081E0898F898DF7
:10142000EB89FC89808317C0E989FA898081E98981
:10143000FA899181692F41E00E94200788891D8ADD
:10144000882311F491E09D8BEB89FC892D89208301
:1014500002C081E08F878F8569960FB6F894DEBF52
:101460000FBECDBFCF91DF910895DF93CF9300D012
:101470000F92CDB7DEB79B838A8319828A819B81C5
:101480000097F9F0EA81FB8181818830D0F4EA810C
:10149000FB8180818430A8F4EA81FB8183818230E2
:1014A00080F4EA81FB818281823058F4EA81FB81F9
:1014B0008081EA81FB819181692F40E00E94C6050D
:1014C00002C081E0898389810F900F900F90CF91A6
:1014D000DF910895DF93CF9300D000D00F92CDB766
:1014E000DEB79B838A8319828A819B810097D1F121
:1014F000EA81FB8181818830A8F5EA81FB818081C6
:10150000843080F5EA81FB818081EA81FB819181D1
:10151000692F41E00E94C605EA81FB818281282F64
:1015200030E03D832C838C819D81009781F02C815C
:101530003D8121303105C1F4EA81FB818081EA815E
:10154000FB819181692F40E00E9420070DC0EA8154
:10155000FB818081EA81FB819181692F41E00E94BA
:10156000200702C081E0898389810F900F900F903E
:101570000F900F90CF91DF910895DF93CF9300D01C
:1015800000D00F92CDB7DEB79B838A8319828A8100
:101590009B81009781F1EA81FB818181883058F538
:1015A000EA81FB818081843030F5EA81FB81828190
:1015B000282F30E03D832C838C819D81009781F022
:1015C0002C813D8121303105C1F4EA81FB8180818C
:1015D000EA81FB819181692F41E00E9420070DC0C3
:1015E000EA81FB818081EA81FB819181692F40E062
:1015F0000E94200702C081E0898389810F900F90AB
:101600000F900F900F90CF91DF910895DF93CF93BC
:1016100000D000D00F92CDB7DEB79B838A831982AA
:101620008A819B81009781F1EA81FB8181818830E9
:1016300058F5EA81FB818081843030F5EA81FB81B5
:101640008281282F30E03D832C838C819D810097FF
:1016500081F02C813D8121303105C1F4EA81FB818B
:101660008081EA81FB819181692F40E00E942007FF
:101670000DC0EA81FB818081EA81FB819181692F24
:1016800041E00E94200702C081E0898389810F9098
:101690000F900F900F900F90CF91DF910895DF93EF
:1016A000CF9300D000D00F92CDB7DEB78FEF8B83F2
:1016B0001A825EC08A81882F90E0FC01EF54FF4FB0
:1016C000908183E0692F40E00E94200719823DC08D
:1016D0008981882F90E0FC01E355FF4F90819E01A6
:1016E0002C5F3F4F83E0692FA9010E947A088C810B
:1016F000882341F58981482F50E08A81282F30E0E6
:10170000CA01880F991F880F991F820F931FFC0130
:10171000EB54FF4F80818B830FC08981882F90E02D
:10172000FC01E355FF4F90819E012C5F3F4F83E00A
:10173000692FA9010E947A088C81882371F38B811B
:101740008D831CC089818F5F89838981843008F4EF
:10175000BFCF8A81882F90E0FC01EF54FF4F90812A
:1017600083E0692F41E00E9420078A818F5F8A838E
:101770008A81843008F49ECF8B818D838D810F9078
:101780000F900F900F900F90CF91DF910895DF93FE
:10179000CF93CDB7DEB72F970FB6F894DEBF0FBE4D
:1017A000CDBF8F8781E060E040E00E94200781E0AC
:1017B00061E040E00E94200780E06F850E943208CF
:1017C00081E062E041E00E94200780E090E0A0E03C
:1017D000B0E48B879C87AD87BE876B857C858D85C4
:1017E0009E8520E030E04AE753E40E941F02DC01BE
:1017F000CB018F839887A987BA876F817885898580
:101800009A8520E030E040E85FE30E947903882376
:101810002CF481E090E09E838D833FC06F817885BA
:1018200089859A8520E03FEF4FE757E40E9419032E
:1018300018164CF56B857C858D859E8520E030E003
:1018400040E251E40E941F02DC01CB01BC01CD014A
:101850000E944900DC01CB019E838D830FC089E18A
:1018600090E09C838B838B819C810197F1F79C8313
:101870008B838D819E8101979E838D838D819E8137
:10188000009769F714C06F81788589859A850E94D1
:101890004900DC01CB019E838D838D819E819A83DB
:1018A000898389819A810197F1F79A83898381E0FD
:1018B00062E040E00E9420072F960FB6F894DEBF4A
:1018C0000FBECDBFCF91DF910895DF93CF93CDB7FA
:1018D000DEB72F970FB6F894DEBF0FBECDBF8F8750
:1018E00081E060E041E00E94200781E061E040E0AB
:1018F0000E94200780E06F850E94320881E062E04C
:1019000041E00E94200780E090E0A0E0B0E48B87F7
:101910009C87AD87BE876B857C858D859E8520E005
:1019200030E04AE753E40E941F02DC01CB018F83C1
:101930009887A987BA876F81788589859A8520E0FD
:1019400030E040E85FE30E94790388232CF481E0D3
:1019500090E09E838D833FC06F81788589859A85CD
:1019600020E03FEF4FE757E40E94190318164CF5AB
:101970006B857C858D859E8520E030E040E251E4DA
:101980000E941F02DC01CB01BC01CD010E94490075
:10199000DC01CB019E838D830FC089E190E09C83A5
:1019A0008B838B819C810197F1F79C838B838D8145
:1019B0009E8101979E838D838D819E81009769F71B
:1019C00014C06F81788589859A850E944900DC0161
:1019D000CB019E838D838D819E819A8389838981AA
:1019E0009A810197F1F79A83898381E062E040E070
:1019F0000E9420072F960FB6F894DEBF0FBECDBF12
:101A0000CF91DF910895DF93CF93CDB7DEB72E97B7
:101A10000FB6F894DEBF0FBECDBF80E090E0A0E22D
:101A2000B2E48B879C87AD87BE876B857C858D856F
:101A30009E8520E030E04AE753E40E941F02DC016B
:101A4000CB018F839887A987BA876F81788589852D
:101A50009A8520E030E040E85FE30E947903882324
:101A60002CF481E090E09E838D833FC06F81788568
:101A700089859A8520E03FEF4FE757E40E941903DC
:101A800018164CF56B857C858D859E8520E030E0B1
:101A900040E251E40E941F02DC01CB01BC01CD01F8
:101AA0000E944900DC01CB019E838D830FC089E138
:101AB00090E09C838B838B819C810197F1F79C83C1
:101AC0008B838D819E8101979E838D838D819E81E5
:101AD000009769F714C06F81788589859A850E947F
:101AE0004900DC01CB019E838D838D819E819A8389
:101AF000898389819A810197F1F79A8389838CE39D
:101B00000E94C70B8CE00E94C70B81E00E94C70BAC
:101B10002E960FB6F894DEBF0FBECDBFCF91DF91EA
:101B20000895DF93CF9300D00F92CDB7DEB79B839C
:101B30008A8319820FC08981282F30E08A819B8196
:101B4000FC01E20FF31F908189818F5F8983892FC8
:101B50000E94650C8981282F30E08A819B81FC01DD
:101B6000E20FF31F8081882331F70F900F900F90C1
:101B7000CF91DF910895DF93CF9300D00F92CDB72F
:101B8000DEB78A836B838A81882319F48B818983EA
:101B900006C08A81813019F48B81805C89838981B8
:101BA00080580E94C70B0F900F900F90CF91DF913C
:101BB0000895DF93CF93CDB7DEB727970FB6F8948C
:101BC000DEBF0FBECDBF9C838B836D834E832F837F
:101BD0001A828D81882F90E0880F991F880F991F96
:101BE000880F991F8A838A81805C0E94C70B1982A3
:101BF0000EC08981282F30E08B819C81FC01E20F8F
:101C0000F31F80810E94650C89818F5F89838981A0
:101C1000883078F38E816F810E94BB0D8D810E9488
:101C2000650C27960FB6F894DEBF0FBECDBFCF91DF
:101C3000DF910895DF93CF93CDB7DEB765970FB6E9
:101C4000F894DEBF0FBECDBF6A877B878C879D87E8
:101C50002DB73EB73D8B2C8B8A859B85AC85BD858A
:101C60000097A105B10521F480E30E94650C13C122
:101C70008DB79EB79F878E871F821E821D828A85A1
:101C80009B85AC85BD8589839A83AB83BC838D811D
:101C90008F5F8D8389819A81AB81BC812AE030E09E
:101CA00040E050E0BC01CD010E94B918DA01C90141
:101CB00089839A83AB83BC8389819A81AB81BC8100
:101CC0000097A105B10519F78D81882F90E02DB7F8
:101CD0003EB7281B390B0FB6F8943EBF0FBE2DBF81
:101CE0008DB79EB701969B8B8A8B8A899B890096BC
:101CF0009B8B8A8B2A893B89398728872EC08A85C6
:101D00009B85AC85BD852AE030E040E050E0BC0119
:101D1000CD010E94B918DC01CB018F838E81282F61
:101D200030E088859985FC01E20FF31F8F81808365
:101D30008E818F5F8E838A859B85AC85BD852AE0E9
:101D400030E040E050E0BC01CD010E94B918DA015A
:101D5000C9018A879B87AC87BD878A859B85AC85AF
:101D6000BD850097A105B10521F09E818D81981751
:101D700030F28D8181508D831E8281C08D81282F0C
:101D800030E08E81882F90E0281B390B888599855B
:101D9000FC01E20FF31F8081282F30E0398B288B64
:101DA000888999898430910509F44FC02889398937
:101DB00025303105D4F48889998981309105C9F19C
:101DC00028893989223031052CF48889998900972E
:101DD00061F152C0288939892230310571F1888931
:101DE00099898330910569F147C02889398927305D
:101DF0003105B9F188899989883091055CF4288981
:101E000039892530310529F18889998986309105EC
:101E100021F132C0288939892830310531F188898A
:101E200099898930910529F127C080E30E94650CCA
:101E300023C081E30E94650C1FC082E30E94650CF1
:101E40001BC083E30E94650C17C084E30E94650CED
:101E500013C085E30E94650C0FC086E30E94650CE9
:101E60000BC087E30E94650C07C088E30E94650CE5
:101E700003C089E30E94650C8E818F5F8E839E81F3
:101E80008D81891708F07ACF2E853F850FB6F8949B
:101E90003EBF0FBE2DBF8C899D890FB6F8949EBFA3
:101EA0000FBE8DBF65960FB6F894DEBF0FBECDBFD7
:101EB000CF91DF910895DF93CF93CDB7DEB781E067
:101EC0000E94C70BCF91DF910895DF93CF93CDB7D9
:101ED000DEB72B970FB6F894DEBF0FBECDBF9C8345
:101EE0008B836D831A8219828B819C81009709F400
:101EF00013C1EB81FC818081843008F00DC1EB813E
:101F0000FC818281873008F007C1EB81FC818181EF
:101F1000843008F001C1EB81FC818381823008F0BC
:101F2000FBC08D818A3008F0F7C0EB81FC81848191
:101F3000282F30E03B872A874A855B85411551056C
:101F400009F4A2C08A859B858130910509F0E1C022
:101F5000EB81FC818581853008F093C0EB81FC81A9
:101F60008381282F30E03987288748855985411596
:101F7000510509F446C0888599858130910509F09D
:101F8000CDC0EB81FC818181EB81FC819281692F45
:101F900040E00E942007198230C08D81282F30E058
:101FA0008981992787FD9095A90102C0559547958C
:101FB0008A95E2F7CA0181709070882371F0EB81F5
:101FC000FC812081EB81FC8195818981980F822F92
:101FD000692F41E00E9420070DC0EB81FC81208128
:101FE000EB81FC8195818981980F822F692F40E0D8
:101FF0000E94200789818F5F8983898184306CF2F8
:102000008DC0EB81FC818181EB81FC819281692F04
:1020100041E00E942007198230C08D81282F30E0D6
:102020008981992787FD9095A90102C0559547950B
:102030008A95E2F7CA0181709070882371F0EB8174
:10204000FC812081EB81FC8195818981980F822F11
:10205000692F40E00E9420070DC0EB81FC812081A8
:10206000EB81FC8195818981980F822F692F41E056
:102070000E94200789818F5F8983898184306CF277
:102080004DC081E08A834AC0EB81FC818381282F87
:1020900030E03F832E834E815F8141155105F1F081
:1020A0008E819F8181309105C9F5EB81FC81818111
:1020B000EB81FC819281692F40E00E942007EB8137
:1020C000FC8120818D81882F90E0FC01EB53FF4F34
:1020D0009081822F692F0E94320820C0EB81FC8101
:1020E0008181EB81FC819281692F41E00E94200770
:1020F000EB81FC8120818D81882F90E0FC01EB53E6
:10210000FF4F8081982F9095822F692F0E9432086F
:1021100005C081E08A8302C081E08A838A812B9690
:102120000FB6F894DEBF0FBECDBFCF91DF910895FB
:10213000DF93CF9300D000D00F92CDB7DEB79B8353
:102140008A8319828A819B810097D1F1EA81FB8180
:1021500080818430A8F5EA81FB818281873080F517
:10216000EA81FB818181843058F5EA81FB8183819A
:10217000823030F5EA81FB818381282F30E03D8376
:102180002C838C819D81009781F02C813D812130B1
:102190003105C1F4EA81FB818181EA81FB81928171
:1021A000692F41E00E9420070DC0EA81FB818181F7
:1021B000EA81FB819281692F40E00E94200702C0E2
:1021C00081E0898389810F900F900F900F900F907D
:1021D000CF91DF910895DF93CF9300D000D000D04E
:1021E000CDB7DEB79C838B831A8219828B819C8149
:1021F000009709F464C0EB81FC818081843008F091
:102200005EC0EB81FC818281873008F058C0EB8191
:10221000FC818181843008F052C0EB81FC81838194
:10222000823008F04CC0EB81FC818481282F30E0A3
:102230003E832D838D819E81009769F12D813E81A2
:1022400021303105C9F5EB81FC818581853000F5B0
:10225000198210C0EB81FC812081EB81FC8195818A
:102260008981980F822F692F41E00E94C6058981DC
:102270008F5F89838981843068F3EB81FC81818160
:10228000EB81FC819281692F41E00E94C60519C053
:1022900081E08A8316C0EB81FC8180816FEF0E9410
:1022A000D806EB81FC818181EB81FC819281692FD1
:1022B00041E00E94C60505C081E08A8302C081E03A
:1022C0008A838A8126960FB6F894DEBF0FBECDBFF3
:1022D000CF91DF910895DF93CF93CDB7DEB7AA9763
:1022E0000FB6F894DEBF0FBECDBF0E94A3050E94BB
:1022F000030D80E690E00E94910D80E090E0AAE757
:10230000B4E48FA398A7A9A7BAA76FA178A589A5B8
:102310009AA520E030E04AE753E40E941F02DC0166
:10232000CB018BA39CA3ADA3BEA36BA17CA18DA16C
:102330009EA120E030E040E85FE30E94790388231B
:102340002CF481E090E09AA389A33FC06BA17CA10B
:102350008DA19EA120E03FEF4FE757E40E941903B3
:1023600018164CF56FA178A589A59AA520E030E054
:1023700040E251E40E941F02DC01CB01BC01CD010F
:102380000E944900DC01CB019AA389A30FC089E117
:1023900090E098A38F8F8F8D98A10197F1F798A364
:1023A0008F8F89A19AA101979AA389A389A19AA144
:1023B000009769F714C06BA17CA18DA19EA10E941A
:1023C0004900DC01CB019AA389A389A19AA19E8F20
:1023D0008D8F8D8D9E8D0197F1F79E8F8D8F0E9431
:1023E0005B0F8AE690E00E94910D81E060E00E9420
:1023F000BB0D89E790E00E94910D80E090E0AAE794
:10240000B4E4898F9A8FAB8FBC8F698D7A8D8B8D59
:102410009C8D20E030E04AE753E40E941F02DC017B
:10242000CB018D8B9E8BAF8BB88F6D897E898F8909
:10243000988D20E030E040E85FE30E947903882334
:102440002CF481E090E09C8B8B8B3FC06D897E8962
:102450008F89988D20E03FEF4FE757E40E941903E2
:1024600018164CF5698D7A8D8B8D9C8D20E030E0AF
:1024700040E251E40E941F02DC01CB01BC01CD010E
:102480000E944900DC01CB019C8B8B8B0FC089E142
:1024900090E09A8B898B89899A890197F1F79A8BB9
:1024A000898B8B899C8901979C8B8B8B8B899C89D1
:1024B000009769F714C06D897E898F89988D0E9475
:1024C0004900DC01CB019C8B8B8B8B899C89988B81
:1024D0008F878F8598890197F1F7988B8F870E9456
:1024E0005B0F84E890E00E94910D80E090E0AAE705
:1024F000B4E48B879C87AD87BE876B857C858D8593
:102500009E8520E030E04AE753E40E941F02DC0190
:10251000CB018F839887A987BA876F817885898552
:102520009A8520E030E040E85FE30E947903882349
:102530002CF481E090E09E838D833FC06F8178858D
:1025400089859A8520E03FEF4FE757E40E94190301
:1025500018164CF56B857C858D859E8520E030E0D6
:1025600040E251E40E941F02DC01CB01BC01CD011D
:102570000E944900DC01CB019E838D830FC089E15D
:1025800090E09C838B838B819C810197F1F79C83E6
:102590008B838D819E8101979E838D838D819E810A
:1025A000009769F714C06F81788589859A850E94A4
:1025B0004900DC01CB019E838D838D819E819A83AE
:1025C000898389819A810197F1F79A8389830E948F
:1025D0005B0F83E990E00E94910D81E060E00E9432
:1025E000BB0D8FE990E00E94910DAA960FB6F8946A
:1025F000DEBF0FBECDBFCF91DF910895AF92BF92E6
:10260000CF92DF92EF92FF920F931F93DF93CF93BE
:10261000CDB7DEB760970FB6F894DEBF0FBECDBF63
:1026200069837A838B839C832D833E834F83588772
:10263000E986FA860B871C87AD86BE86CF86D88A48
:102640000E945B0F19821A821B821C821D821E82CD
:102650001F82188619861A861B861C861D861E8672
:102660001F86188A1D8E1E8E1F8E18A260960FB6AA
:10267000F894DEBF0FBECDBFCF91DF911F910F91B8
:10268000FF90EF90DF90CF90BF90AF900895EF92C2
:10269000FF920F931F93DF93CF93CDB7DEB76E9763
:1026A0000FB6F894DEBF0FBECDBF6D837E838F83E0
:1026B000988729873A874B875C87ED86FE860F8748
:1026C000188B19821A821B821C82ED84FE840F856E
:1026D0001889EB8EFC8E0D8F1E8F0B8D1C8D2D8D12
:1026E0003E8D023011052105310509F479C08B8D2D
:1026F0009C8DAD8DBE8D83309105A105B10554F43F
:102700000B8D1C8D2D8D3E8D013011052105310560
:10271000B1F061C18B8D9C8DAD8DBE8D83309105E7
:10272000A105B10509F4B1C00B8D1C8D2D8D3E8D19
:10273000043011052105310509F4FAC04CC12D8181
:102740003E814F81588589859A85AB85BC85820FEE
:10275000931FA41FB51F89839A83AB83BC83898190
:102760009A81AB81BC81BB23F4F48DE20E94650C9D
:1027700089819A819A8F898F298D3A8D33233CF4F0
:10278000898D9A8D909581959F4F9A8F898FE98C2D
:10279000FA8CC701AA2797FDA095BA2FBC01CD01DD
:1027A0000E941A0E08C089819A81AB81BC81BC014C
:1027B000CD010E941A0E89819A81AB81BC818D83E3
:1027C0009E83AF83B88719861A861B861C861D8652
:1027D0001E861F86188A19821A821B821C8243C198
:1027E0002D813E814F81588589859A85AB85BC8531
:1027F00079018A01E81AF90A0A0B1B0BD801C701F3
:1028000089839A83AB83BC8389819A81AB81BC81A4
:10281000BB23F4F48DE20E94650C89819A81988F24
:102820008F8B0F89188D11233CF42F89388D3095AB
:1028300021953F4F388F2F8BEF88F88CC701AA273F
:1028400097FDA095BA2FBC01CD010E941A0E08C0B9
:1028500089819A81AB81BC81BC01CD010E941A0E95
:1028600089819A81AB81BC818D839E83AF83B88738
:1028700019861A861B861C861D861E861F86188A48
:1028800019821A821B821C82EEC08D819E81AF81CB
:10289000B88529853A854B855C85BC01CD010E94B0
:1028A0009A18DC01CB0189839A83AB83BC8389812D
:1028B0009A81AB81BC81BB23F4F48DE20E94650C4C
:1028C00089819A819E8B8D8B0D891E8911233CF401
:1028D0002D893E89309521953F4F3E8B2D8BED887C
:1028E000FE88C701AA2797FDA095BA2FBC01CD018C
:1028F0000E941A0E08C089819A81AB81BC81BC01FB
:10290000CD010E941A0E89819A81AB81BC818D8391
:102910009E83AF83B88719861A861B861C861D8600
:102920001E861F86188A19821A821B821C829BC0EF
:102930008D819E81AF81B88529853A854B855C85DF
:10294000BC01CD010E94DB18DA01C90189839A8399
:10295000AB83BC8389819A81AB81BC81BB23F4F4B6
:102960008DE20E94650C89819A819C8B8B8B0B89EF
:102970001C8911233CF42B893C89309521953F4FCC
:102980003C8B2B8BEB88FC88C701AA2797FDA09571
:10299000BA2FBC01CD010E941A0E08C089819A810C
:1029A000AB81BC81BC01CD010E941A0E89819A8144
:1029B000AB81BC818D839E83AF83B88719861A86CD
:1029C0001B861C861D861E861F86188A19821A82FF
:1029D0001B821C8248C08D819E81AF81B88589830E
:1029E0009A83AB83BC8389819A81AB81BC81BB23F1
:1029F000F4F48DE20E94650C89819A819A8B898B0F
:102A000009891A8911233CF429893A89309521953D
:102A10003F4F3A8B298BE988FA88C701AA2797FD8F
:102A2000A095BA2FBC01CD010E941A0E08C0898161
:102A30009A81AB81BC81BC01CD010E941A0E8981B3
:102A40009A81AB81BC818D839E83AF83B8871986C1
:102A50001A861B861C861D861E861F86188A19826A
:102A60001A821B821C826E960FB6F894DEBF0FBED0
:102A7000CDBFCF91DF911F910F91FF90EF900895FF
:102A80006F927F928F929F92AF92BF92CF92DF927E
:102A9000EF92FF920F931F93DF93CF93CDB7DEB7E3
:102AA000AA970FB6F894DEBF0FBECDBF0E946B1180
:102AB0001D8A1E8A1F8A188E198A1A8A1B8A1C8AE6
:102AC0001D861E861F86188A19861A861B861C86F6
:102AD0001D821E821F8218860E944F0B882F90E055
:102AE000A0E0B0E089839A83AB83BC8389819A811B
:102AF000AB81BC818F3F9105A105B10569F3898147
:102B00009A81AB81BC8183329105A105B10561F544
:102B100000D000D0EDB7FEB731962D893E894F89A0
:102B2000588DE988FA880B891C89AD84BE84CF84CE
:102B3000D88869847A848B849C848D819E81AF81BE
:102B4000B88580839183A283B383CA01B901A801A8
:102B5000970186017501640153010E94FE120F90D6
:102B60000F900F900F90B8CF89819A81AB81BC8173
:102B700080339105A105B10594F189819A81AB81DA
:102B8000BC818A339105A105B1054CF58D819E81EB
:102B9000AF81B8850097A105B10509F58D899E899A
:102BA000AF89B88D2AE030E040E050E0BC01CD01B3
:102BB0000E949A189B01AC0189819A81AB81BC81EA
:102BC000C097A109B109820F931FA41FB51F8D8B58
:102BD0009E8BAF8BB88F89810E94650C7DCF8981D8
:102BE0009A81AB81BC8180339105A105B1059CF12F
:102BF00089819A81AB81BC818A339105A105B10598
:102C000054F58D819E81AF81B88581309105A105F4
:102C1000B10509F589899A89AB89BC892AE030E038
:102C200040E050E0BC01CD010E949A189B01AC012C
:102C300089819A81AB81BC81C097A109B109820FBA
:102C4000931FA41FB51F898B9A8BAB8BBC8B89817B
:102C50000E94650C41CF89819A81AB81BC818B3206
:102C60009105A105B105E1F089819A81AB81BC8113
:102C70008D329105A105B10599F089819A81AB81C9
:102C8000BC818A329105A105B10551F089819A81F3
:102C9000AB81BC818F329105A105B10509F06FC0F0
:102CA00081E090E0A0E0B0E08D839E83AF83B887A1
:102CB000E980FA800B811C81EBA2FCA20DA31EA36C
:102CC0000BA11CA12DA13EA10B321105210531053F
:102CD00031F18BA19CA1ADA1BEA18C329105A105C2
:102CE000B10554F40BA11CA12DA13EA10A3211057E
:102CF0002105310561F1F0CE8BA19CA1ADA1BEA152
:102D00008D329105A105B105B1F00BA11CA12DA13A
:102D10003EA10F3211052105310529F1DDCE81E0FB
:102D200090E0A0E0B0E08D879E87AF87B88B898167
:102D30000E94650CD1CE82E090E0A0E0B0E08D87EB
:102D40009E87AF87B88B89810E94650CC5CE83E0D2
:102D500090E0A0E0B0E08D879E87AF87B88B898137
:102D60000E94650CB9CE84E090E0A0E0B0E08D87D1
:102D70009E87AF87B88B89810E94650CADCE898113
:102D80009A81AB81BC818D339105A105B10509F014
:102D9000A3CE0E945B0F8D859E85AF85B8898FA3DA
:102DA00098A7A9A7BAA70FA118A529A53AA50230E7
:102DB00011052105310509F479C08FA198A5A9A5B0
:102DC000BAA583309105A105B10554F40FA118A54A
:102DD00029A53AA50130110521053105B1F061C1E0
:102DE0008FA198A5A9A5BAA583309105A105B10524
:102DF00009F4B1C00FA118A529A53AA50430110501
:102E00002105310509F4FAC04CC12D893E894F894D
:102E1000588D89899A89AB89BC89820F931FA41F19
:102E2000B51F89879A87AB87BC8789859A85AB85CB
:102E3000BC85BB23F4F48DE20E94650C89859A85DC
:102E40009AA389A329A13AA133233CF489A19AA189
:102E5000909581959F4F9AA389A3E9A0FAA0C701F5
:102E6000AA2797FDA095BA2FBC01CD010E941A0E8A
:102E700008C089859A85AB85BC85BC01CD010E94BF
:102E80001A0E89859A85AB85BC858D8B9E8BAF8B01
:102E9000B88F198A1A8A1B8A1C8A1D861E861F866D
:102EA000188A19861A861B861C8616CE2D893E899D
:102EB0004F89588D89899A89AB89BC8979018A01A2
:102EC000E81AF90A0A0B1B0BD801C70189879A87F0
:102ED000AB87BC8789859A85AB85BC85BB23F4F419
:102EE0008DE20E94650C89859A8598A38F8F0F8D3E
:102EF00018A111233CF42F8D38A1309521953F4F17
:102F000038A32F8FEF8CF8A0C701AA2797FDA095B3
:102F1000BA2FBC01CD010E941A0E08C089859A857E
:102F2000AB85BC85BC01CD010E941A0E89859A85AE
:102F3000AB85BC858D8B9E8BAF8BB88F198A1A8A17
:102F40001B8A1C8A1D861E861F86188A19861A8669
:102F50001B861C86C1CD8D899E89AF89B88D298934
:102F60003A894B895C89BC01CD010E949A18DC0129
:102F7000CB0189879A87AB87BC8789859A85AB8582
:102F8000BC85BB23F4F48DE20E94650C89859A858B
:102F90009E8F8D8F0D8D1E8D11233CF42D8D3E8DBA
:102FA000309521953F4F3E8F2D8FED8CFE8CC701C4
:102FB000AA2797FDA095BA2FBC01CD010E941A0E39
:102FC00008C089859A85AB85BC85BC01CD010E946E
:102FD0001A0E89859A85AB85BC858D8B9E8BAF8BB0
:102FE000B88F198A1A8A1B8A1C8A1D861E861F861C
:102FF000188A19861A861B861C866ECD8D899E8935
:10300000AF89B88D29893A894B895C89BC01CD018A
:103010000E94DB18DA01C90189879A87AB87BC87D0
:1030200089859A85AB85BC85BB23F4F48DE20E942B
:10303000650C89859A859C8F8B8F0B8D1C8D112338
:103040003CF42B8D3C8D309521953F4F3C8F2B8F41
:10305000EB8CFC8CC701AA2797FDA095BA2FBC0169
:10306000CD010E941A0E08C089859A85AB85BC8562
:10307000BC01CD010E941A0E89859A85AB85BC855D
:103080008D8B9E8BAF8BB88F198A1A8A1B8A1C8AEC
:103090001D861E861F86188A19861A861B861C8620
:1030A0001BCD8D899E89AF89B88D89879A87AB871B
:1030B000BC8789859A85AB85BC85BB23F4F48DE2FA
:1030C0000E94650C89859A859A8F898F098D1A8D42
:1030D00011233CF4298D3A8D309521953F4F3A8F3D
:1030E000298FE98CFA8CC701AA2797FDA095BA2FE2
:1030F000BC01CD010E941A0E08C089859A85AB8556
:10310000BC85BC01CD010E941A0E89859A85AB85CC
:10311000BC858D8B9E8BAF8BB88F198A1A8A1B8AC0
:103120001C8A1D861E861F86188A19861A861B868B
:103130001C86D2CC629FD001739FF001829FE00D6C
:10314000F11D649FE00DF11D929FF00D839FF00D26
:10315000749FF00D659FF00D9927729FB00DE11DD2
:10316000F91F639FB00DE11DF91FBD01CF011124AF
:103170000895A1E21A2EAA1BBB1BFD010DC0AA1FB8
:10318000BB1FEE1FFF1FA217B307E407F50720F0D0
:10319000A21BB30BE40BF50B661F771F881F991F4B
:1031A0001A9469F760957095809590959B01AC0194
:1031B000BD01CF01089597FB092E05260ED057FDBE
:1031C00004D0D7DF0AD0001C38F4509540953095D4
:1031D00021953F4F4F4F5F4F0895F6F7909580959B
:1031E000709561957F4F8F4F9F4F08952F923F921B
:1031F0004F925F926F927F928F929F92AF92BF9207
:10320000CF92DF92EF92FF920F931F93CF93DF93B2
:10321000CDB7DEB7CA1BDB0B0FB6F894DEBF0FBE0F
:10322000CDBF09942A88398848885F846E847D845C
:103230008C849B84AA84B984C884DF80EE80FD805E
:103240000C811B81AA81B981CE0FD11D0FB6F894D4
:0E325000DEBF0FBECDBFED010895F894FFCF95
:10325E0077656C636F6D65202100746869732069F2
:10326E00732073696D706C650063616C63756C615E
:10327E00746F72006E6F742063616C63756C617431
:10328E006F72007072657373206F6E20746F0073AF
:10329E007461727400000000000000000004050656
:1032AE0007000102033738392F3435362A313233CD
:1032BE002D23303D2B3F065B4F666D7D077F6F00E4
:04000003000022D601
:00000001FF
