:100000000C942A000C9469060C949C060C94CF0660
:100010000C9447000C9447000C9447000C94470044
:100020000C9447000C9447000C9447000C94470034
:100030000C9447000C9447000C9447000C94470024
:100040000C9447000C9447000C9447000C94470014
:100050000C94470011241FBECFE5D8E0DEBFCDBF12
:1000600010E0A0E6B0E0E6EDF1E302C005900D92ED
:10007000AE3DB107D9F710E0AEEDB0E001C01D9282
:10008000AA3EB107E1F70E9475180C94E9180C9488
:100090000000EF92FF920F931F937B018C0120E0F1
:1000A00030E040E05FE40E94490388238CF0C801FF
:1000B000B70120E030E040E05FE40E94C1010E940F
:1000C000A9039B01AC01205030404040504806C07D
:1000D000C801B7010E94A9039B01AC01B901CA0183
:1000E0001F910F91FF90EF900895A0E0B0E0EBE733
:1000F000F0E00C94B218DC012B01FA019C919230D3
:1001000008F439C1EB018881823008F433C194309E
:1001100069F4843009F02FC111969C91119789815F
:10012000981709F428C1A2EBB0E025C1843009F486
:1001300021C18230A9F4923009F01DC19A01AD01AC
:1001400088E0EA010990AE01E90109929E0181501F
:10015000C1F7E201898111969C918923818308C1AD
:10016000923009F407C112962D903C901397EB0141
:100170008A819B811496AD90BD90CD90DC901797AD
:10018000EC80FD800E811F819101281B390BB90184
:1001900037FF04C066277727621B730B6032710537
:1001A0000CF061C0121613066CF537014801062EDB
:1001B00004C096948794779467940A94D2F721E0C8
:1001C00030E040E050E004C0220F331F441F551FB1
:1001D0006A95D2F721503040404050402E213F21B7
:1001E00040235123211531054105510521F021E01E
:1001F00030E040E050E079018A01E628F72808293C
:1002000019293CC0232BD1F1260E371E350146019A
:10021000062E04C096948794779467940A94D2F734
:1002200021E030E040E050E004C0220F331F441FC3
:10023000551F6A95D2F721503040404050402A2146
:100240003B214C215D21211531054105510521F04E
:1002500021E030E040E050E059016A01A628B728CB
:10026000C828D9280BC0821593052CF01C01AA249C
:10027000BB24650103C0EE24FF24870111969C91E5
:10028000D20111968C91981709F445C0992339F041
:10029000A80197012A193B094C095D0906C0A6016E
:1002A00095012E193F09400B510B57FD08C01182D3
:1002B0003382228224833583468357831DC081E0A5
:1002C00081833382228288279927DC01821B930B4A
:1002D000A40BB50B84839583A683B7830DC0220F2F
:1002E000331F441F551F24833583468357838281E0
:1002F000938101979383828324813581468157813D
:10030000DA01C9010197A109B1098F5F9F4FAF4F72
:10031000BF4328F30BC0918333822282EA0CFB1C7B
:100320000C1D1D1DE482F5820683178383E0808304
:10033000248135814681578157FF1AC0C901AA27F8
:1003400097FDA095BA2F81709070A070B0705695EF
:10035000479537952795822B932BA42BB52B848318
:100360009583A683B7838281938101969383828349
:10037000DF0101C0D201CD01CDB7DEB7E2E10C94BF
:10038000CE18A0E2B0E0E7ECF1E00C94BE1869836F
:100390007A838B839C832D833E834F835887E9E048
:1003A000EE2EF12CEC0EFD1ECE010196B7010E943F
:1003B000D2048E010F5E1F4FCE010596B8010E9438
:1003C000D2048A8991E089278A8BC701B801AE01DE
:1003D000475E5F4F0E9475000E94FD03A096E6E015
:1003E0000C94DA18A0E2B0E0E8EFF1E00C94BE184B
:1003F00069837A838B839C832D833E834F835887C5
:10040000F9E0EF2EF12CEC0EFD1ECE010196B701A6
:100410000E94D2048E010F5E1F4FCE010596B801D7
:100420000E94D204C701B801AE01475E5F4F0E942F
:1004300075000E94FD03A096E6E00C94DA18A0E295
:10044000B0E0E5E2F2E00C94B21869837A838B8322
:100450009C832D833E834F835887CE010196BE0136
:10046000675F7F4F0E94D204CE010596BE016F5E8A
:100470007F4F0E94D2049985923088F0898982301A
:10048000C8F0943019F4823051F404C0843029F457
:10049000923081F482EB90E0C6C0923049F420E0C3
:1004A0009A858A89981321E02A87CE010996BBC0D4
:1004B000823049F420E09A858A89981321E02A8BBA
:1004C000CE014196B0C02D843E844F8458886D88FB
:1004D0007E888F88988CEE24FF248701AA24BB2471
:1004E000650140E050E060E070E0E0E0F0E0C10174
:1004F00081709070892BE9F0E60CF71C081D191D1E
:100500009A01AB012A0D3B1D4C1D5D1D80E090E062
:10051000A0E0B0E0E614F7040805190520F481E036
:1005200090E0A0E0B0E0BA01A901480F591F6A1F8E
:100530007B1FAA0CBB1CCC1CDD1C97FE08C081E0F5
:1005400090E0A0E0B0E0A82AB92ACA2ADB2A3196B6
:10055000E032F10549F0660C771C881C991C569412
:10056000479437942794C3CFFA85EA892B893C892D
:100570008B859C85280F391F2E5F3F4F17C0CA01FE
:1005800081709070892B61F016950795F794E79428
:1005900080E090E0A0E0B0E8E82AF92A0A2B1B2BC3
:1005A00076956795579547952F5F3F4F77FDE7CF36
:1005B0000CC0440F551F661F771F17FD4160EE0CDE
:1005C000FF1C001F111F21503040403090E05907A0
:1005D00090E0690790E4790760F32B8F3C8FDB0193
:1005E000CA018F779070A070B07080349105A1051A
:1005F000B10561F447FD0AC0E114F10401051105DC
:1006000029F0405C5F4F6F4F7F4F40781A8EFE1786
:1006100011F081E08A8F4D8F5E8F6F8F78A383E01A
:10062000898FCE0149960E94FD03A096E2E10C94C9
:10063000CE18A8E1B0E0EFE1F3E00C94BE186983B6
:100640007A838B839C832D833E834F83588789E0F5
:10065000E82EF12CEC0EFD1ECE010196B7010E9492
:10066000D2048E010F5E1F4FCE010596B8010E9485
:10067000D2048985823040F08989823028F0C70110
:10068000B8010E944A0501C08FEF6896E6E00C941D
:10069000DA18A8E1B0E0EFE4F3E00C94BE18698347
:1006A0007A838B839C832D833E834F83588789E095
:1006B000E82EF12CEC0EFD1ECE010196B7010E9432
:1006C000D2048E010F5E1F4FCE010596B8010E9425
:1006D000D2048985823040F08989823028F0C701B0
:1006E000B8010E944A0501C08FEF6896E6E00C94BD
:1006F000DA18A8E1B0E0EFE7F3E00C94BE186983E4
:100700007A838B839C832D833E834F83588789E034
:10071000E82EF12CEC0EFD1ECE010196B7010E94D1
:10072000D2048E010F5E1F4FCE010596B8010E94C4
:10073000D2048985823040F08989823028F0C7014F
:10074000B8010E944A0501C081E06896E6E00C9479
:10075000DA18ACE0B0E0EFEAF3E00C94C218698379
:100760007A838B839C83CE010196BE016B5F7F4FA2
:100770000E94D2048D81823061F1823050F1843048
:1007800021F48E81882351F12EC02F81388537FDC9
:1007900020C06E812F3131051CF06623F9F023C093
:1007A0008EE190E0821B930B29853A854B855C8511
:1007B00004C056954795379527958A95D2F76623B5
:1007C000B1F050954095309521953F4F4F4F5F4F79
:1007D0000EC020E030E040E050E009C02FEF3FEFD6
:1007E0004FEF5FE704C020E030E040E050E8B9019F
:1007F000CA012C96E2E00C94DE18DF92EF92FF9291
:100800000F931F93FC01E480F58006811781D1804E
:100810008081823048F480E090E0A0E1B0E0E82AF6
:10082000F92A0A2B1B2BA5C0843009F49FC0823003
:1008300021F4EE24FF24870105C0E114F104010531
:10084000110519F4E0E0F0E096C0628173819FEF3A
:10085000623879070CF05BC022E83FEF261B370BAC
:100860002A3131052CF020E030E040E050E02AC091
:10087000B801A701022E04C0769567955795479554
:100880000A94D2F781E090E0A0E0B0E004C0880FC5
:10089000991FAA1FBB1F2A95D2F70197A109B10979
:1008A0008E219F21A023B1230097A105B10521F03E
:1008B00081E090E0A0E0B0E09A01AB01282B392B59
:1008C0004A2B5B2BDA01C9018F779070A070B07052
:1008D00080349105A105B10539F427FF09C0205CDA
:1008E0003F4F4F4F5F4F04C0215C3F4F4F4F5F4F13
:1008F000E0E0F0E02030A0E03A07A0E04A07A0E402
:100900005A0710F0E1E0F0E079018A0127C0603871
:10091000710564F5FB01E158FF4FD801C7018F77DE
:100920009070A070B07080349105A105B10539F4C4
:10093000E7FE0DC080E490E0A0E0B0E004C08FE3EB
:1009400090E0A0E0B0E0E80EF91E0A1F1B1F17FFA1
:1009500005C016950795F794E794319687E01695AC
:100960000795F794E7948A95D1F705C0EE24FF2404
:100970008701EFEFF0E06E2F679566276795902F60
:100980009F77D794DD24D7948E2F8695492F462BB9
:10099000582F5D29B701CA011F910F91FF90EF9069
:1009A000DF900895FC01DB01408151812281622F9B
:1009B0006F7770E0221F2227221F9381892F880FD3
:1009C000822B282F30E0991F9927991F11969C930D
:1009D000119721153105A9F54115510561057105DD
:1009E00011F482E037C082E89FEF13969C938E93B8
:1009F00012979A01AB0167E0220F331F441F551F66
:100A00006A95D1F783E08C930DC0220F331F441FEA
:100A1000551F12968D919C911397019713969C9355
:100A20008E931297203080E0380780E0480780E4FA
:100A3000580758F314962D933D934D935C93179755
:100A400008952F3F310579F4411551056105710570
:100A500019F484E08C93089564FF03C081E08C93C3
:100A600012C01C9210C02F57304013963C932E9307
:100A7000129783E08C9387E0440F551F661F771F02
:100A80008A95D1F7706414964D935D936D937C9322
:100A9000179708951F93DC01FB019C91923008F495
:100AA00047C08081823008F443C0943051F41196DD
:100AB0001C91843099F58181682F70E0611B710968
:100AC0003FC0843021F0923031F48230B9F181811D
:100AD000882389F12DC011961C9111978230F1F075
:100AE00081811817D9F412962D913C911397828128
:100AF00093818217930794F028173907BCF0149656
:100B00008D919D910D90BC91A02D248135814681C0
:100B10005781281739074A075B0718F4112341F05A
:100B20000AC082179307A407B50740F4112319F0F0
:100B300061E070E005C06FEF7FEF02C060E070E041
:100B4000CB011F910895DF93CF93CDB7DEB7EAE3D2
:100B5000F0E08FEF8083E7E3F0E087E08083E4E379
:100B6000F0E01082E1E3F0E083E08083EBE3F0E08B
:100B70001082E8E3F0E01082E2E3F0E08FEF8083A0
:100B8000E2E3F0E01082CF91DF910895DF93CF93FD
:100B9000CDB7DEB7AFE5B0E0EFE5F0E0808180688B
:100BA0008C93CF91DF910895DF93CF93CDB7DEB7CC
:100BB000AFE5B0E0EFE5F0E080818F778C93CF91E7
:100BC000DF910895DF93CF93CDB7DEB7A5E5B0E011
:100BD000E5E5F0E080818E7F8C93A5E5B0E0E5E56A
:100BE000F0E0808182608C93ABE5B0E0EBE5F0E073
:100BF000808180648C93CF91DF910895DF93CF93B0
:100C0000CDB7DEB7A5E5B0E0E5E5F0E080818B7F0C
:100C10008C93A5E5B0E0E5E5F0E0808188608C93F9
:100C2000ABE5B0E0EBE5F0E0808180688C93CF919C
:100C3000DF910895DF93CF93CDB7DEB7A4E5B0E0A1
:100C4000E4E5F0E080818F7B8C93ABE5B0E0EBE5F1
:100C5000F0E080818F7B8C93CF91DF910895DF93BB
:100C6000CF9300D00F92CDB7DEB79B838A831982D2
:100C70008A819B81009739F08A819B819093DF0064
:100C80008093DE0002C082E0898389810F900F90FB
:100C90000F90CF91DF910895DF93CF9300D00F9203
:100CA000CDB7DEB79B838A8319828A819B810097A7
:100CB00039F08A819B819093E1008093E00002C02B
:100CC00082E0898389810F900F900F90CF91DF91FF
:100CD00008951F920F920FB60F9211242F933F93F6
:100CE0004F935F936F937F938F939F93AF93BF9334
:100CF000EF93FF93DF93CF93CDB7DEB78091DE0004
:100D00009091DF00009729F0E091DE00F091DF0084
:100D10000995CF91DF91FF91EF91BF91AF919F9195
:100D20008F917F916F915F914F913F912F910F9094
:100D30000FBE0F901F9018951F920F920FB60F9233
:100D400011242F933F934F935F936F937F938F93D0
:100D50009F93AF93BF93EF93FF93DF93CF93CDB761
:100D6000DEB78091E0009091E100009729F0E091DA
:100D7000E000F091E1000995CF91DF91FF91EF91B3
:100D8000BF91AF919F918F917F916F915F914F91A3
:100D90003F912F910F900FBE0F901F9018951F92AB
:100DA0000F920FB60F9211242F933F934F935F939F
:100DB0006F937F938F939F93AF93BF93EF93FF9323
:100DC000DF93CF93CDB7DEB78091E2009091E3003F
:100DD000009729F0E091E200F091E3000995CF91AE
:100DE000DF91FF91EF91BF91AF919F918F917F9193
:100DF0006F915F914F913F912F910F900FBE0F9088
:100E00001F901895DF93CF93CDB7DEB728970FB615
:100E1000F894DEBF0FBECDBF8A836B834C831982EB
:100E20008B81883008F0F4C08C81882309F077C06A
:100E30008A81282F30E038872F838F8198858130F1
:100E4000910559F12F813885223031052CF48F819D
:100E50009885009769F060C02F8138852230310570
:100E600089F18F8198858330910509F440C054C081
:100E7000AAE3B0E0EAE3F0E08081482F8B81282FDD
:100E800030E081E090E0022E02C0880F991F0A94A2
:100E9000E2F7809584238C93BDC0A7E3B0E0E7E33D
:100EA000F0E08081482F8B81282F30E081E090E0B6
:100EB000022E02C0880F991F0A94E2F780958423BE
:100EC0008C93A8C0A4E3B0E0E4E3F0E08081482F75
:100ED0008B81282F30E081E090E0022E02C0880F45
:100EE000991F0A94E2F7809584238C9393C0A1E321
:100EF000B0E0E1E3F0E08081482F8B81282F30E0E3
:100F000081E090E0022E02C0880F991F0A94E2F758
:100F1000809584238C937EC081E089837BC08C8103
:100F2000813009F072C08A81282F30E03E832D8302
:100F30008D819E818130910549F12D813E81223044
:100F400031052CF48D819E81009761F05BC02D816D
:100F50003E812230310571F18D819E818330910572
:100F6000E9F150C0AAE3B0E0EAE3F0E08081482F65
:100F70008B81282F30E081E090E0022E02C0880FA4
:100F8000991F0A94E2F7842B8C9344C0A7E3B0E046
:100F9000E7E3F0E08081482F8B81282F30E081E06B
:100FA00090E0022E02C0880F991F0A94E2F7842B6A
:100FB0008C9330C0A4E3B0E0E4E3F0E08081482FFC
:100FC0008B81282F30E081E090E0022E02C0880F54
:100FD000991F0A94E2F7842B8C931CC0A1E3B0E024
:100FE000E1E3F0E08081482F8B81282F30E081E021
:100FF00090E0022E02C0880F991F0A94E2F7842B1A
:101000008C9308C081E0898305C081E0898302C098
:1010100081E08983898128960FB6F894DEBF0FBEE0
:10102000CDBFCF91DF910895DF93CF9300D000D053
:101030000F92CDB7DEB78A836B8319828A81282FFE
:1010400030E03D832C838C819D8181309105D1F0EE
:101050002C813D81223031052CF48C819D810097BB
:1010600061F01FC02C813D812230310581F08C81DF
:101070009D818330910581F014C0EAE3F0E08B811B
:10108000808311C0E7E3F0E08B8180830CC0E4E350
:10109000F0E08B81808307C0E1E3F0E08B81808307
:1010A00002C081E0898389810F900F900F900F908B
:1010B0000F90CF91DF910895DF93CF93CDB7DEB737
:1010C00028970FB6F894DEBF0FBECDBF8A836B831F
:1010D0004C8319828B81883008F0F4C08C8188237E
:1010E00009F077C08A81282F30E038872F838F81DD
:1010F00098858130910559F12F813885223031054D
:101100002CF48F819885009769F060C02F81388515
:101110002230310589F18F8198858330910509F45A
:1011200040C054C0ABE3B0E0EBE3F0E08081482F77
:101130008B81282F30E081E090E0022E02C0880FE2
:10114000991F0A94E2F7809584238C93BDC0A8E38D
:10115000B0E0E8E3F0E08081482F8B81282F30E079
:1011600081E090E0022E02C0880F991F0A94E2F7F6
:10117000809584238C93A8C0A5E3B0E0E5E3F0E07C
:101180008081482F8B81282F30E081E090E0022E73
:1011900002C0880F991F0A94E2F7809584238C93EC
:1011A00093C0A2E3B0E0E2E3F0E08081482F8B81BE
:1011B000282F30E081E090E0022E02C0880F991FB6
:1011C0000A94E2F7809584238C937EC081E0898322
:1011D0007BC08C81813009F072C08A81282F30E079
:1011E0003E832D838D819E818130910549F12D8132
:1011F0003E81223031052CF48D819E81009761F073
:101200005BC02D813E812230310571F18D819E813F
:1012100083309105E9F150C0ABE3B0E0EBE3F0E0DF
:101220008081482F8B81282F30E081E090E0022ED2
:1012300002C0880F991F0A94E2F7842B8C9344C054
:10124000A8E3B0E0E8E3F0E08081482F8B81282F0D
:1012500030E081E090E0022E02C0880F991F0A94CE
:10126000E2F7842B8C9330C0A5E3B0E0E5E3F0E037
:101270008081482F8B81282F30E081E090E0022E82
:1012800002C0880F991F0A94E2F7842B8C931CC02C
:10129000A2E3B0E0E2E3F0E08081482F8B81282FC9
:1012A00030E081E090E0022E02C0880F991F0A947E
:1012B000E2F7842B8C9308C081E0898305C081E02C
:1012C000898302C081E08983898128960FB6F894CA
:1012D000DEBF0FBECDBFCF91DF910895DF93CF93D7
:1012E00000D000D00F92CDB7DEB78A836B8319820E
:1012F0008A81282F30E03D832C838C819D81813031
:101300009105D1F02C813D81223031052CF48C8166
:101310009D81009761F01FC02C813D8122303105F5
:1013200081F08C819D818330910581F014C0EBE3C5
:10133000F0E08B81808311C0E8E3F0E08B81808353
:101340000CC0E5E3F0E08B81808307C0E2E3F0E0CE
:101350008B81808302C081E0898389810F900F9007
:101360000F900F900F90CF91DF910895DF93CF935F
:10137000CDB7DEB727970FB6F894DEBF0FBECDBF4F
:101380008A836B835D834C8319828C819D81009756
:1013900009F478C08B81883008F074C08A81282FC6
:1013A00030E03F832E834E815F814130510559F1FA
:1013B0008E819F818230910534F42E813F812115E9
:1013C000310569F05CC04E815F814230510579F191
:1013D0008E819F818330910509F43DC050C0E9E3BF
:1013E000F0E08081282F30E08B81882F90E0A901E8
:1013F00002C0559547958A95E2F7CA018170EC8144
:10140000FD81808341C0E6E3F0E08081282F30E059
:101410008B81882F90E0A90102C0559547958A9548
:10142000E2F7CA018170EC81FD8180832DC0E3E386
:10143000F0E08081282F30E08B81882F90E0A90197
:1014400002C0559547958A95E2F7CA018170EC81F3
:10145000FD81808319C0E0E3F0E08081282F30E037
:101460008B81882F90E0A90102C0559547958A95F8
:10147000E2F7CA018170EC81FD81808305C081E0C3
:10148000898302C081E08983898127960FB6F89409
:10149000DEBF0FBECDBFCF91DF910895DF93CF9315
:1014A000CDB7DEB769970FB6F894DEBF0FBECDBFDC
:1014B0009A8B898B7C8B6B8B1F868B899C89009781
:1014C00009F403C189899A89009709F4FEC0E98962
:1014D000FA898181883008F0F8C0E989FA89808129
:1014E000843008F0F2C0E989FA898381823008F0FB
:1014F000ECC0E989FA898281833008F0E6C0E98985
:10150000FA898381813009F08DC0E989FA89808167
:10151000E989FA8991819E01205F3F4F692FA901D6
:101520000E94B60980E090E0AAEFB3E48B879C8725
:10153000AD87BE876B857C858D859E8520E030E0FC
:101540004AEF54E40E941F02DC01CB018F8398878D
:10155000A987BA876F81788589859A8520E030E0F0
:1015600040E85FE30E94790388232CF481E090E057
:101570009E838D833FC06F81788589859A8520E021
:101580003FEF4FE757E40E94190318164CF56B859F
:101590007C858D859E8520E030E040E251E40E940C
:1015A0001F02DC01CB01BC01CD010E944900DC011E
:1015B000CB019E838D830FC088EC90E09C838B834E
:1015C0008B819C810197F1F79C838B838D819E8118
:1015D00001979E838D838D819E81009769F714C04A
:1015E0006F81788589859A850E944900DC01CB014D
:1015F0009E838D838D819E819A83898389819A813F
:101600000197F1F79A838983E989FA898081E989C9
:10161000FA8991819E01205F3F4F692FA9010E94A5
:10162000B60912C0E989FA898381882369F4E989B6
:10163000FA898081E989FA8991819E01205F3F4F73
:10164000692FA9010E94B609E989FA898281282FA8
:1016500030E0388F2F8B8F89988D81309105A1F0E4
:101660002F89388D22303105D9F08F89988D0097D8
:1016700071F588891E8A882311F491E09E8BEB898D
:10168000FC892E89208323C08889898F398D332353
:1016900011F081E0898F898DEB89FC89808317C0E7
:1016A000E989FA898081E989FA899181692F41E084
:1016B0000E945C0888891D8A882311F491E09D8B23
:1016C000EB89FC892D89208302C081E08F878F857B
:1016D00069960FB6F894DEBF0FBECDBFCF91DF91F4
:1016E0000895DF93CF9300D00F92CDB7DEB79B83E1
:1016F0008A8319828A819B810097F9F0EA81FB81B4
:1017000081818830D0F4EA81FB8180818430A8F423
:10171000EA81FB818381823080F4EA81FB818281CE
:10172000823058F4EA81FB818081EA81FB819181DA
:10173000692F40E00E94020702C081E0898389810D
:101740000F900F900F90CF91DF910895DF93CF937B
:1017500000D000D00F92CDB7DEB79B838A83198269
:101760008A819B810097D1F1EA81FB818181883058
:10177000A8F5EA81FB818081843080F5EA81FB81D4
:101780008081EA81FB819181692F41E00E940207FB
:10179000EA81FB818281282F30E03D832C838C817C
:1017A0009D81009781F02C813D8121303105C1F46C
:1017B000EA81FB818081EA81FB819181692F40E090
:1017C0000E945C080DC0EA81FB818081EA81FB8177
:1017D0009181692F41E00E945C0802C081E0898309
:1017E00089810F900F900F900F900F90CF91DF9104
:1017F0000895DF93CF9300D000D00F92CDB7DEB71E
:101800009B838A8319828A819B81009781F1EA8177
:10181000FB818181883058F5EA81FB8180818430A9
:1018200030F5EA81FB818281282F30E03D832C83D3
:101830008C819D81009781F02C813D812130310583
:10184000C1F4EA81FB818081EA81FB819181692F6A
:1018500041E00E945C080DC0EA81FB818081EA8141
:10186000FB819181692F40E00E945C0802C081E009
:10187000898389810F900F900F900F900F90CF91D7
:10188000DF910895DF93CF9300D000D00F92CDB7B2
:10189000DEB79B838A8319828A819B81009781F1BD
:1018A000EA81FB818181883058F5EA81FB81808162
:1018B000843030F5EA81FB818281282F30E03D833E
:1018C0002C838C819D81009781F02C813D8121307A
:1018D0003105C1F4EA81FB818081EA81FB8191813C
:1018E000692F40E00E945C080DC0EA81FB81808185
:1018F000EA81FB819181692F41E00E945C0802C06E
:1019000081E0898389810F900F900F900F900F9045
:10191000CF91DF910895DF93CF9300D000D00F9245
:10192000CDB7DEB78FEF8B831A825EC08A81882F96
:1019300090E0FC01E254FF4F908183E0692F40E08A
:101940000E945C0819823DC08981882F90E0FC01CB
:10195000E654FF4F90819E012C5F3F4F83E0692F3B
:10196000A9010E94B6098C81882341F58981482FFD
:1019700050E08A81282F30E0CA01880F991F880F14
:10198000991F820F931FFC01EE53FF4F80818B83C1
:101990000FC08981882F90E0FC01E654FF4F9081B1
:1019A0009E012C5F3F4F83E0692FA9010E94B60979
:1019B0008C81882371F38B818D831CC089818F5F1B
:1019C00089838981843008F4BFCF8A81882F90E091
:1019D000FC01E254FF4F908183E0692F41E00E94B7
:1019E0005C088A818F5F8A838A81843008F49ECF65
:1019F0008B818D838D810F900F900F900F900F90A2
:101A0000CF91DF910895DF93CF93CDB7DEB72F97B6
:101A10000FB6F894DEBF0FBECDBF8F8781E060E0C8
:101A200040E00E945C0881E061E040E00E945C08C8
:101A300080E06F850E946E0981E062E041E00E94D3
:101A40005C0880E090E0A0E0B0E48B879C87AD87E5
:101A5000BE876B857C858D859E8520E030E04AE7DA
:101A600053E40E941F02DC01CB018F839887A98772
:101A7000BA876F81788589859A8520E030E040E8D3
:101A80005FE30E94790388232CF481E090E09E8339
:101A90008D833FC06F81788589859A8520E03FEFEF
:101AA0004FE757E40E94190318164CF56B857C85A7
:101AB0008D859E8520E030E040E251E40E941F02C7
:101AC000DC01CB01BC01CD010E944900DC01CB014E
:101AD0009E838D830FC089E190E09C838B838B81F3
:101AE0009C810197F1F79C838B838D819E81019767
:101AF0009E838D838D819E81009769F714C06F81CD
:101B0000788589859A850E944900DC01CB019E83F6
:101B10008D838D819E819A83898389819A810197A2
:101B2000F1F79A83898381E062E040E00E945C08DB
:101B30002F960FB6F894DEBF0FBECDBFCF91DF91C9
:101B40000895DF93CF93CDB7DEB72F970FB6F894F4
:101B5000DEBF0FBECDBF8F8781E060E041E00E9415
:101B60005C0881E061E040E00E945C0880E06F85F5
:101B70000E946E0981E062E041E00E945C0880E022
:101B800090E0A0E0B0E48B879C87AD87BE876B8533
:101B90007C858D859E8520E030E04AE753E40E94F5
:101BA0001F02DC01CB018F839887A987BA876F81D9
:101BB000788589859A8520E030E040E85FE30E94DF
:101BC000790388232CF481E090E09E838D833FC0CD
:101BD0006F81788589859A8520E03FEF4FE757E44C
:101BE0000E94190318164CF56B857C858D859E85A2
:101BF00020E030E040E251E40E941F02DC01CB0112
:101C0000BC01CD010E944900DC01CB019E838D8384
:101C10000FC089E190E09C838B838B819C8101972D
:101C2000F1F79C838B838D819E8101979E838D83A9
:101C30008D819E81009769F714C06F8178858985B1
:101C40009A850E944900DC01CB019E838D838D81A2
:101C50009E819A83898389819A810197F1F79A837A
:101C6000898381E062E040E00E945C082F960FB615
:101C7000F894DEBF0FBECDBFCF91DF910895DF9303
:101C8000CF93CDB7DEB72E970FB6F894DEBF0FBE59
:101C9000CDBF80E090E0A0E2B2E48B879C87AD8767
:101CA000BE876B857C858D859E8520E030E04AE788
:101CB00053E40E941F02DC01CB018F839887A98720
:101CC000BA876F81788589859A8520E030E040E881
:101CD0005FE30E94790388232CF481E090E09E83E7
:101CE0008D833FC06F81788589859A8520E03FEF9D
:101CF0004FE757E40E94190318164CF56B857C8555
:101D00008D859E8520E030E040E251E40E941F0274
:101D1000DC01CB01BC01CD010E944900DC01CB01FB
:101D20009E838D830FC089E190E09C838B838B81A0
:101D30009C810197F1F79C838B838D819E81019714
:101D40009E838D838D819E81009769F714C06F817A
:101D5000788589859A850E944900DC01CB019E83A4
:101D60008D838D819E819A83898389819A81019750
:101D7000F1F79A8389838CE30E94030D8CE00E9423
:101D8000030D81E00E94030D2E960FB6F894DEBF7E
:101D90000FBECDBFCF91DF910895DF93CF9300D0D9
:101DA0000F92CDB7DEB79B838A8319820FC08981DA
:101DB000282F30E08A819B81FC01E20FF31F908184
:101DC00089818F5F8983892F0E94A10D8981282FA6
:101DD00030E08A819B81FC01E20FF31F8081882320
:101DE00031F70F900F900F90CF91DF910895DF930F
:101DF000CF9300D00F92CDB7DEB78A836B838A81F1
:101E0000882319F48B81898306C08A81813019F473
:101E10008B81805C8983898180580E94030D0F909B
:101E20000F900F90CF91DF910895DF93CF93CDB7AF
:101E3000DEB727970FB6F894DEBF0FBECDBF9C83E9
:101E40008B836D834E832F831A828D81882F90E040
:101E5000880F991F880F991F880F991F8A838A817D
:101E6000805C0E94030D19820EC08981282F30E00A
:101E70008B819C81FC01E20FF31F80810E94A10DE8
:101E800089818F5F89838981883078F38E816F8122
:101E90000E94F70E8D810E94A10D27960FB6F8942F
:101EA000DEBF0FBECDBFCF91DF910895DF93CF93FB
:101EB000CDB7DEB765970FB6F894DEBF0FBECDBFC6
:101EC0006A877B878C879D872DB73EB73D8B2C8B90
:101ED0008A859B85AC85BD850097A105B10521F458
:101EE00080E30E94A10D13C18DB79EB79F878E8797
:101EF0001F821E821D828A859B85AC85BD85898354
:101F00009A83AB83BC838D818F5F8D8389819A8116
:101F1000AB81BC812AE030E040E050E0BC01CD0163
:101F20000E949018DA01C90189839A83AB83BC832C
:101F300089819A81AB81BC810097A105B10519F710
:101F40008D81882F90E02DB73EB7281B390B0FB637
:101F5000F8943EBF0FBE2DBF8DB79EB701969B8BE9
:101F60008A8B8A899B8900969B8B8A8B2A893B89DD
:101F7000398728872EC08A859B85AC85BD852AE058
:101F800030E040E050E0BC01CD010E949018DC013F
:101F9000CB018F838E81282F30E088859985FC01C5
:101FA000E20FF31F8F8180838E818F5F8E838A85FE
:101FB0009B85AC85BD852AE030E040E050E0BC0167
:101FC000CD010E949018DA01C9018A879B87AC87EE
:101FD000BD878A859B85AC85BD850097A105B10528
:101FE00021F09E818D81981730F28D8181508D83F3
:101FF0001E8281C08D81282F30E08E81882F90E055
:10200000281B390B88859985FC01E20FF31F80811D
:10201000282F30E0398B288B888999898430910565
:1020200009F44FC02889398925303105D4F48889CD
:10203000998981309105C9F1288939892230310582
:102040002CF488899989009761F152C028893989CF
:102050002230310571F1888999898330910569F1C0
:1020600047C02889398927303105B9F1888999898C
:10207000883091055CF4288939892530310529F1AA
:10208000888999898630910521F132C0288939895A
:102090002830310531F1888999898930910529F1F4
:1020A00027C080E30E94A10D23C081E30E94A10DFF
:1020B0001FC082E30E94A10D1BC083E30E94A10DFB
:1020C00017C084E30E94A10D13C085E30E94A10DF7
:1020D0000FC086E30E94A10D0BC087E30E94A10DF3
:1020E00007C088E30E94A10D03C089E30E94A10DEF
:1020F0008E818F5F8E839E818D81891708F07ACFC4
:102100002E853F850FB6F8943EBF0FBE2DBF8C893C
:102110009D890FB6F8949EBF0FBE8DBF65960FB612
:10212000F894DEBF0FBECDBFCF91DF910895DF934E
:10213000CF93CDB7DEB781E00E94030DCF91DF9141
:102140000895DF93CF93CDB7DEB72B970FB6F894F2
:10215000DEBF0FBECDBF9C838B836D831A82198235
:102160008B819C81009709F413C1EB81FC818081F4
:10217000843008F00DC1EB81FC818281873008F04A
:1021800007C1EB81FC818181843008F001C1EB81C2
:10219000FC818381823008F0FBC08D818A3008F099
:1021A000F7C0EB81FC818481282F30E03B872A87B0
:1021B0004A855B854115510509F4A2C08A859B8536
:1021C0008130910509F0E1C0EB81FC81858185308A
:1021D00008F093C0EB81FC818381282F30E03987A0
:1021E0002887488559854115510509F446C08885D9
:1021F00099858130910509F0CDC0EB81FC81818109
:10220000EB81FC819281692F40E00E945C08198279
:1022100030C08D81282F30E08981992787FD9095E6
:10222000A90102C0559547958A95E2F7CA018170C8
:102230009070882371F0EB81FC812081EB81FC811F
:1022400095818981980F822F692F41E00E945C0857
:102250000DC0EB81FC812081EB81FC81958189811E
:10226000980F822F692F40E00E945C0889818F5F60
:102270008983898184306CF28DC0EB81FC818181FE
:10228000EB81FC819281692F41E00E945C081982F8
:1022900030C08D81282F30E08981992787FD909566
:1022A000A90102C0559547958A95E2F7CA01817048
:1022B0009070882371F0EB81FC812081EB81FC819F
:1022C00095818981980F822F692F40E00E945C08D8
:1022D0000DC0EB81FC812081EB81FC81958189819E
:1022E000980F822F692F41E00E945C0889818F5FDF
:1022F0008983898184306CF24DC081E08A834AC031
:10230000EB81FC818381282F30E03F832E834E8137
:102310005F8141155105F1F08E819F8181309105DA
:10232000C9F5EB81FC818181EB81FC819281692F70
:1023300040E00E945C08EB81FC8120818D81882F28
:1023400090E0FC01EE52FF4F9081822F692F0E9496
:102350006E0920C0EB81FC818181EB81FC8192813F
:10236000692F41E00E945C08EB81FC8120818D8116
:10237000882F90E0FC01EE52FF4F8081982F9095BE
:10238000822F692F0E946E0905C081E08A8302C0F6
:1023900081E08A838A812B960FB6F894DEBF0FBE48
:1023A000CDBFCF91DF910895DF93CF9300D000D0C0
:1023B0000F92CDB7DEB79B838A8319828A819B8176
:1023C0000097D1F1EA81FB8180818430A8F5EA8110
:1023D000FB818281873080F5EA81FB8181818430B5
:1023E00058F5EA81FB818381823030F5EA81FB81F7
:1023F0008381282F30E03D832C838C819D81009741
:1024000081F02C813D8121303105C1F4EA81FB81CD
:102410008181EA81FB819281692F41E00E945C0801
:102420000DC0EA81FB818181EA81FB819281692F64
:1024300040E00E945C0802C081E0898389810F909E
:102440000F900F900F900F90CF91DF910895DF9331
:10245000CF9300D000D000D0CDB7DEB79C838B8364
:102460001A8219828B819C81009709F464C0EB81E8
:10247000FC818081843008F05EC0EB81FC81828128
:10248000873008F058C0EB81FC818181843008F0EE
:1024900052C0EB81FC818381823008F04CC0EB811B
:1024A000FC818481282F30E03E832D838D819E81A5
:1024B000009769F12D813E8121303105C9F5EB810D
:1024C000FC818581853000F5198210C0EB81FC818B
:1024D0002081EB81FC8195818981980F822F692F62
:1024E00041E00E94020789818F5F8983898184305E
:1024F00068F3EB81FC818181EB81FC819281692F02
:1025000041E00E94020719C081E08A8316C0EB8176
:10251000FC8180816FEF0E941408EB81FC81818136
:10252000EB81FC819281692F41E00E94020705C086
:1025300081E08A8302C081E08A838A8126960FB671
:10254000F894DEBF0FBECDBFCF91DF910895DF932A
:10255000CF93CDB7DEB76C970FB6F894DEBF0FBE42
:10256000CDBF0E94A3050E943F0E80E690E00E942E
:10257000CD0E80E090E0AAEFB3E4898F9A8FAB8F05
:10258000BC8F698D7A8D8B8D9C8D20E030E04AE781
:1025900053E40E941F02DC01CB018D8B9E8BAF8B1D
:1025A000B88F6D897E898F89988D20E030E040E872
:1025B0005FE30E94790388232CF481E090E09C8BF8
:1025C0008B8B3FC06D897E898F89988D20E03FEF8E
:1025D0004FE757E40E94190318164CF5698D7A8D60
:1025E0008B8D9C8D20E030E040E251E40E941F0280
:1025F000DC01CB01BC01CD010E944900DC01CB0113
:102600009C8B8B8B0FC089E190E09A8B898B898999
:102610009A890197F1F79A8B898B8B899C8901970D
:102620009C8B8B8B8B899C89009769F714C06D8973
:102630007E898F89988D0E944900DC01CB019C8B9B
:102640008B8B8B899C89988B8F878F859889019735
:10265000F1F7988B8F870E9497108AE690E00E948E
:10266000CD0E81E060E00E94F70E83E790E00E94CB
:10267000CD0E80E090E0AAEFB3E48B879C87AD8716
:10268000BE876B857C858D859E8520E030E04AE79E
:1026900053E40E941F02DC01CB018F839887A98736
:1026A000BA876F81788589859A8520E030E040E897
:1026B0005FE30E94790388232CF481E090E09E83FD
:1026C0008D833FC06F81788589859A8520E03FEFB3
:1026D0004FE757E40E94190318164CF56B857C856B
:1026E0008D859E8520E030E040E251E40E941F028B
:1026F000DC01CB01BC01CD010E944900DC01CB0112
:102700009E838D830FC089E190E09C838B838B81B6
:102710009C810197F1F79C838B838D819E8101972A
:102720009E838D838D819E81009769F714C06F8190
:10273000788589859A850E944900DC01CB019E83BA
:102740008D838D819E819A83898389819A81019766
:10275000F1F79A8389830E9497106C960FB6F894CC
:10276000DEBF0FBECDBFCF91DF910895DF93CF9332
:10277000CDB7DEB7AA970FB6F894DEBF0FBECDBFB8
:1027800080E090E0AAEFB3E48FA398A7A9A7BAA727
:102790006FA178A589A59AA520E030E04AE753E427
:1027A0000E941F02DC01CB018BA39CA3ADA3BEA39F
:1027B0006BA17CA18DA19EA120E030E040E85FE309
:1027C0000E94790388232CF481E090E09AA389A3E6
:1027D0003FC06BA17CA18DA19EA120E03FEF4FE700
:1027E00057E40E94190318164CF56FA178A589A526
:1027F0009AA520E030E040E251E40E941F02DC0193
:10280000CB01BC01CD010E944900DC01CB019AA3A0
:1028100089A30FC089E190E098A38F8F8F8D98A135
:102820000197F1F798A38F8F89A19AA101979AA395
:1028300089A389A19AA1009769F714C06BA17CA113
:102840008DA19EA10E944900DC01CB019AA389A31E
:1028500089A19AA19E8F8D8F8D8D9E8D0197F1F705
:102860009E8F8D8F9091E4008091E500891708F08C
:102870008BC00E94971080E060E00E94F70E88E70E
:1028800090E00E94CD0E8091E6008F5F8093E6007D
:1028900080E090E0AAEFB3E4898F9A8FAB8FBC8F72
:1028A000698D7A8D8B8D9C8D20E030E04AE753E472
:1028B0000E941F02DC01CB018D8B9E8BAF8BB88FEA
:1028C0006D897E898F89988D20E030E040E85FE354
:1028D0000E94790388232CF481E090E09C8B8B8B01
:1028E0003FC06D897E898F89988D20E03FEF4FE74B
:1028F00057E40E94190318164CF5698D7A8D8B8D5B
:102900009C8D20E030E040E251E40E941F02DC0197
:10291000CB01BC01CD010E944900DC01CB019C8BA5
:102920008B8B0FC089E190E09A8B898B89899A897A
:102930000197F1F79A8B898B8B899C8901979C8BE6
:102940008B8B8B899C89009769F714C06D897E8970
:102950008F89988D0E944900DC01CB019C8B8B8B69
:102960008B899C89988B8F878F8598890197F1F740
:10297000988B8F870E9497100E9462151092E80032
:1029800081E08093DD0091C09091E5008091E400AA
:10299000891708F08AC00E94971080E060E00E94CA
:1029A000F70E88E890E00E94CD0E8091E7008F5FDF
:1029B0008093E70080E090E0AAEFB3E48B879C87E8
:1029C000AD87BE876B857C858D859E8520E030E058
:1029D0004AE753E40E941F02DC01CB018F839887F2
:1029E000A987BA876F81788589859A8520E030E04C
:1029F00040E85FE30E94790388232CF481E090E0B3
:102A00009E838D833FC06F81788589859A8520E07C
:102A10003FEF4FE757E40E94190318164CF56B85FA
:102A20007C858D859E8520E030E040E251E40E9467
:102A30001F02DC01CB01BC01CD010E944900DC0179
:102A4000CB019E838D830FC089E190E09C838B83B3
:102A50008B819C810197F1F79C838B838D819E8173
:102A600001979E838D838D819E81009769F714C0A5
:102A70006F81788589859A850E944900DC01CB01A8
:102A80009E838D838D819E819A83898389819A819A
:102A90000197F1F79A8389830E9497100E9462152B
:102AA0001092E80082E08093DD001092E400109222
:102AB000E500AA960FB6F894DEBF0FBECDBFCF914A
:102AC000DF910895DF93CF93CDB7DEB7AA970FB606
:102AD000F894DEBF0FBECDBF88E990E00E94CD0E16
:102AE00081E060E00E94F70E8091E600882F90E080
:102AF000A0E0B0E0BC01CD010E94560F80E090E064
:102B0000AAE7B4E48FA398A7A9A7BAA76FA178A54D
:102B100089A59AA520E030E04AE753E40E941F020D
:102B2000DC01CB018BA39CA3ADA3BEA36BA17CA1B5
:102B30008DA19EA120E030E040E85FE30E94790390
:102B400088232CF481E090E09AA389A33FC06BA175
:102B50007CA18DA19EA120E03FEF4FE757E40E94AA
:102B6000190318164CF56FA178A589A59AA520E040
:102B700030E040E251E40E941F02DC01CB01BC01C5
:102B8000CD010E944900DC01CB019AA389A30FC0AB
:102B900089E190E098A38F8F8F8D98A10197F1F72D
:102BA00098A38F8F89A19AA101979AA389A389A13C
:102BB0009AA1009769F714C06BA17CA18DA19EA179
:102BC0000E944900DC01CB019AA389A389A19AA1A3
:102BD0009E8F8D8F8D8D9E8D0197F1F79E8F8D8F9E
:102BE0000E94971082EA90E00E94CD0E81E060E0A2
:102BF0000E94F70E8091E700882F90E0A0E0B0E0FF
:102C0000BC01CD010E94560F80E090E0AAE7B4E439
:102C1000898F9A8FAB8FBC8F698D7A8D8B8D9C8DB0
:102C200020E030E04AE753E40E941F02DC01CB01C0
:102C30008D8B9E8BAF8BB88F6D897E898F89988D98
:102C400020E030E040E85FE30E94790388232CF421
:102C500081E090E09C8B8B8B3FC06D897E898F8952
:102C6000988D20E03FEF4FE757E40E9419031816B4
:102C70004CF5698D7A8D8B8D9C8D20E030E040E2A3
:102C800051E40E941F02DC01CB01BC01CD010E9476
:102C90004900DC01CB019C8B8B8B0FC089E190E05C
:102CA0009A8B898B89899A890197F1F79A8B898BFD
:102CB0008B899C8901979C8B8B8B8B899C89009736
:102CC00069F714C06D897E898F89988D0E944900AB
:102CD000DC01CB019C8B8B8B8B899C89988B8F879C
:102CE0008F8598890197F1F7988B8F870E949710AD
:102CF0008CEA90E00E94CD0E80E06EE00E94F70E1C
:102D00008CEA90E00E94CD0E80E061E00E94F70E18
:102D10008EEA90E00E94CD0E80E090E0AAEFB3E44E
:102D20008B879C87AD87BE876B857C858D859E85CF
:102D300020E030E04AE753E40E941F02DC01CB01AF
:102D40008F839887A987BA876F81788589859A85C7
:102D500020E030E040E85FE30E94790388232CF410
:102D600081E090E09E838D833FC06F817885898567
:102D70009A8520E03FEF4FE757E40E9419031816A9
:102D80004CF56B857C858D859E8520E030E040E2AA
:102D900051E40E941F02DC01CB01BC01CD010E9465
:102DA0004900DC01CB019E838D830FC089E190E057
:102DB0009C838B838B819C810197F1F79C838B8310
:102DC0008D819E8101979E838D838D819E81009749
:102DD00069F714C06F81788589859A850E944900BA
:102DE000DC01CB019E838D838D819E819A838983B3
:102DF00089819A810197F1F79A83898380E061E064
:102E00000E94F70E80EB90E00E94CD0EAA960FB6BE
:102E1000F894DEBF0FBECDBFCF91DF910895DF9351
:102E2000CF93CDB7DEB72E970FB6F894DEBF0FBEA7
:102E3000CDBF8091E4008F5F8093E40081E08093B8
:102E4000DD0092C08091DD0081708093E800809168
:102E5000E8009091DD00692F0E94F70E8EEA90E065
:102E60000E94CD0E80E090E0A8E4B2E48B879C87BE
:102E7000AD87BE876B857C858D859E8520E030E0A3
:102E80004AE753E40E941F02DC01CB018F8398873D
:102E9000A987BA876F81788589859A8520E030E097
:102EA00040E85FE30E94790388232CF481E090E0FE
:102EB0009E838D833FC06F81788589859A8520E0C8
:102EC0003FEF4FE757E40E94190318164CF56B8546
:102ED0007C858D859E8520E030E040E251E40E94B3
:102EE0001F02DC01CB01BC01CD010E944900DC01C5
:102EF000CB019E838D830FC089E190E09C838B83FF
:102F00008B819C810197F1F79C838B838D819E81BE
:102F100001979E838D838D819E81009769F714C0F0
:102F20006F81788589859A850E944900DC01CB01F3
:102F30009E838D838D819E819A83898389819A81E5
:102F40000197F1F79A8389838091E8009091DD00E1
:102F5000692F0E94F70E80EB90E00E94CD0E8091C9
:102F6000DD008F5F8093DD008091DD008E3008F4FE
:102F700069CF2E960FB6F894DEBF0FBECDBFCF91AE
:102F8000DF910895DF93CF93CDB7DEB72E970FB6BD
:102F9000F894DEBF0FBECDBF8091E5008F5F8093B8
:102FA000E5008EE08093DD0092C08091DD008170AD
:102FB0008093E8008091E8009091DD00692F0E94E5
:102FC000F70E8EEA90E00E94CD0E80E090E0A8E43B
:102FD000B2E48B879C87AD87BE876B857C858D85AA
:102FE0009E8520E030E04AE753E40E941F02DC01A6
:102FF000CB018F839887A987BA876F817885898568
:103000009A8520E030E040E85FE30E94790388235E
:103010002CF481E090E09E838D833FC06F817885A2
:1030200089859A8520E03FEF4FE757E40E94190316
:1030300018164CF56B857C858D859E8520E030E0EB
:1030400040E251E40E941F02DC01CB01BC01CD0132
:103050000E944900DC01CB019E838D830FC089E172
:1030600090E09C838B838B819C810197F1F79C83FB
:103070008B838D819E8101979E838D838D819E811F
:10308000009769F714C06F81788589859A850E94B9
:103090004900DC01CB019E838D838D819E819A83C3
:1030A000898389819A810197F1F79A838983809135
:1030B000E8009091DD00692F0E94F70E80EB90E010
:1030C0000E94CD0E8091DD0081508093DD008091C3
:1030D000DD00823008F069CF2E960FB6F894DEBF7F
:1030E0000FBECDBFCF91DF910895DF93CF93CDB7C2
:1030F000DEB70E94A3050E94E2050E94FE058FE054
:1031000097E10E942F0682EC97E10E944C060E94F4
:10311000C6050E94A7120E9462150E94B613FDCF39
:10312000A1E21A2EAA1BBB1BFD010DC0AA1FBB1FCB
:10313000EE1FFF1FA217B307E407F50720F0A21B3D
:10314000B30BE40BF50B661F771F881F991F1A94AA
:1031500069F760957095809590959B01AC01BD01D4
:10316000CF0108952F923F924F925F926F927F927C
:103170008F929F92AF92BF92CF92DF92EF92FF9287
:103180000F931F93CF93DF93CDB7DEB7CA1BDB0B33
:103190000FB6F894DEBF0FBECDBF09942A883988D8
:1031A00048885F846E847D848C849B84AA84B984DF
:1031B000C884DF80EE80FD800C811B81AA81B981EB
:1031C000CE0FD11D0FB6F894DEBF0FBECDBFED01FF
:0631D0000895F894FFCF02
:1031D60077656C636F6D6520210050696E67506F6F
:1031E6006E670047616D6500506C617965722031CC
:1031F60020576F6E2E2E2E00506C6179657220322C
:1032060020576F6E2E2E2E0070312073636F7265FD
:10321600200070322073636F726520007C004F00BF
:103226002000000000000000000004050607000161
:1032360002033738392F3435362A3132332D2330CD
:0E3246003D2B3F065B4F666D7D077F6F0501D8
:040000030000254E86
:00000001FF
